:020000040800F2
:1000000038A2022099020008BD020008BF020008C1
:1000100071470008C3020008C50200080000000084
:10002000000000000000000000000000C7020008FF
:10003000C902000800000000CB020008CD02000841
:10004000CF020008CF020008CF020008CF0200084C
:10005000CF020008CF020008CF020008CF0200083C
:10006000CF020008CF020008CF020008CF0200082C
:10007000CF020008CF020008CF020008CF0200081C
:10008000CF020008CF020008CF020008CF0200080C
:10009000CF020008CF020008CF020008CF020008FC
:1000A000CF020008CF020008CF020008CF020008EC
:1000B000CF020008CF020008CF020008CF020008DC
:1000C000CF020008CF020008CF020008CF020008CC
:1000D000CF020008CF020008CF020008CF020008BC
:1000E000CF020008CF020008CF020008CF020008AC
:1000F000CF020008CF020008CF020008CF0200089C
:10010000CF020008CF020008CF020008CF0200088B
:10011000CF020008CF020008CF020008CF0200087B
:10012000CF020008AD060008CF020008CF02000889
:10013000CF020008CF020008CF020008CF0200085B
:10014000CF020008CF020008CF020008CF0200084B
:10015000CF020008CF020008CF020008CF0200083B
:10016000CF020008CF020008CF020008CF0200082B
:10017000CF020008CF0200088D0400080000000034
:10018000CF020008CF020008CF020008CF0200080B
:10019000CF020008CF020008CF020008CF020008FB
:1001A000CF020008CF020008CF020008CF020008EB
:1001B000CF020008CF020008CF020008CF020008DB
:1001C000CF020008CF02000800000000CF020008A4
:1001D000CF020008CF020008CF020008CF020008BB
:1001E000CF020008CF020008CF020008CF020008AB
:1001F000CF020008CF02000800F002F800F03CF83F
:100200000AA090E8000C82448344AAF10107DA4571
:1002100001D100F031F8AFF2090EBAE80F0013F087
:10022000010F18BFFB1A43F00103184700B3000089
:1002300020B30000103A24BF78C878C1FAD852071A
:1002400024BF30C830C144BF04680C607047000050
:100250000023002400250026103A28BF78C1FBD8CF
:10026000520728BF30C148BF0B6070471FB505F06B
:1002700031FB1FBD10B510BD00F03FF81146FFF770
:10028000F5FF05F0FDF900F05DF803B4FFF7F2FFAC
:1002900003BC00F065F80000DFF84000016841F49D
:1002A00070010160BFF34F8FDFF83400016821F067
:1002B00040410160BFF36F8F0A480047FEE7FEE749
:1002C000FEE7FEE7FEE7FEE7FEE7FEE7FEE7FEE706
:1002D00005480649044A064B7047000088ED00E0D7
:1002E00034EF00E0F9010008389A022038A2022019
:1002F000389A0220704770477047754600F02CF816
:10030000AE4605006946534620F00700854618B002
:1003100020B5FFF7DDFFBDE820404FF000064FF0AD
:1003200000074FF000084FF0000B21F00701AC462A
:10033000ACE8C009ACE8C009ACE8C009ACE8C00949
:100340008D46704710B50446AFF300802046BDE8E7
:100350001040FFF79ABF000000487047D499022070
:1003600001491820ABBEFEE72600020070470000DE
:1003700010B500BF00BF00BF00BF00BFBFF34F8F6D
:1003800000BF00BF00BF00BF00BF00BFBFF36F8F43
:1003900000BF00BF00BF002011490860114800687D
:1003A00040F400300F49086000BF00BF00BFBFF33A
:1003B0004F8F00BF00BF00BF00BF00BF00BFBFF333
:1003C0006F8F00BF00BF00BF00BF04F031FD0448C5
:1003D0004C30006840F0040001494C31086010BD09
:1003E00050EF00E014ED00E02DE9F04706460D4621
:1003F00017469846DDF8209000242148006840F414
:1004000080001F49086000BF1E48006800F001001E
:100410000028F9D11B482038006840F4746019495D
:100420002039086021201749143108601648154901
:1004300008310860081D0660001D0560081F076080
:1004400000BF44F4807400BF44EA892444F480541B
:1004500044EA483444F4003400BF00BF44F0007460
:100460004DB144F4802444F01004022339220321C6
:10047000184604F025F903480460BDE8F087000041
:1004800030380240286402402800055010B50F485B
:10049000006900F00100B8B10C48406940F001006B
:1004A0000A4948610A48007880F00100084908704C
:1004B00002460121074800F039F907480078401C3E
:1004C0000549087000F0DAF810BD00000000055082
:1004D0004800022000040240400002201CB5002415
:1004E0005648006840F0010054490860084600681A
:1004F00040F0020008600846006840F00400086010
:100500000846006840F0080008600846006840F0AF
:1005100080000860081D006840F00100091D0860A7
:100520000120032100230222CDE90010402144488C
:1005300000F004F90120032100230222CDE900107C
:100540004FF460713F4800F0F9F8012003210023C7
:100550000222CDE900104FF43C613B4800F0EEF878
:100560000120032100230222CDE900100821374891
:1005700000F0E4F80120032100230222CDE900105D
:100580000102334800F0DAF80D220821304800F06B
:10059000A5F80D2206212A4800F0A0F80D22072117
:1005A000284800F09BF80D220621274800F096F815
:1005B0000D220721244800F091F80D22082122483D
:1005C00000F08CF80D2209211F4800F087F80D2259
:1005D0000B211D4800F082F80D2203211B4800F07A
:1005E0007DF80D220821174800F078F80D22092126
:1005F000144800F073F800201649C8601F204861B5
:1006000000208861C8610862486200BF00BF00BF67
:1006100044F0200400BF00BF00BF00BF0846C06810
:1006200040F00100C86044F480440846046002239E
:100630004E221946184604F043F81CBD30380240DB
:10064000000002400004024000080240000C02408A
:10065000001C0240000005500648006840F0010000
:10066000044908600448006840F00100024908603D
:1006700070470000286402400000055009480068E7
:1006800020F001000749086000BF0648006800F03C
:1006900001000028F9D10448006820F00100024957
:1006A00008607047000005502864024010B50948F2
:1006B000006800F4006060B106480830006840F44B
:1006C000006004490831086003480068804704F06E
:1006D00071FB10BD006402404400022030B5CC1014
:1006E00000F1200353F824304C07E50E0F24AC40F2
:1006F000A343CD1000F1200444F82530CC1000F1C4
:10070000200353F824304C07E40E02FA04F4234388
:10071000CD1000F1200444F8253030BD02461069A8
:10072000084008B1012070470020FCE702F00103F7
:100730000BB1816101E00B04836170472DE9F04743
:100740000C46DDE90867002100258C4600BF60E00B
:100750004FF0010808FA01F504EA050CAC4557D141
:10076000D0F800804FEA410A4FF0030909FA0AF96C
:1007700028EA0908C0F80080D0F800804FEA410953
:1007800002FA09F948EA0908C0F80080012A01D0F4
:10079000022A27D1D0F808804FEA410A4FF0030916
:1007A00009FA0AF928EA0908C0F80880D0F8088090
:1007B0004FEA410906FA09F948EA0908C0F8088031
:1007C000D0F804904FF0010808FA01F829EA080966
:1007D000C0F80490D0F8048003FA01F948EA090847
:1007E000C0F80480D0F80C804FEA410A4FF00309AA
:1007F00009FA0AF928EA0908C0F80C80D0F80C8038
:100800004FEA410907FA09F948EA0908C0F80C80DB
:10081000491C10299CD3BDE8F087000010B50022C8
:1008200010211248FFF782FF1048006820F4406052
:100830000E4908600846006840F4806008600022A5
:1008400020210A48FFF772FF022004F0DDFE01229A
:1008500010210648FFF76AFF022004F0D5FE0022AF
:1008600010210248FFF762FF10BD0000001C02408B
:100870001CB50D48006840F080000B49086001205D
:10088000022100230246CDE9001030210748FFF77E
:1008900055FF012210210548FFF748FF01222021C2
:1008A0000248FFF743FF1CBD30380240001C0240E5
:1008B00010B5002210211248FFF738FF10480068D9
:1008C00020F440600E4908600846006840F48060EB
:1008D0000860012220210A48FFF728FF022004F0C7
:1008E00093FE012210210648FFF720FF022004F0AA
:1008F0008BFE002210210248FFF718FF10BD0000F8
:10090000001C024070B5054600241848006820F419
:1009100040601649086008460068086000261AE032
:10092000002210211148FFF701FF022004F06CFEA5
:10093000012210210D48FFF7F9FE6006040E202168
:100940000A48FFF7EBFE08B1601CC4B2012004F0B6
:100950005BFE701CC6B2082EE2DB15B9FFF7A8FFDC
:1009600001E0FFF75BFF204670BD0000001C024065
:1009700070B504461848006820F4406016490860C5
:100980000846006840F48060086000221021124888
:10099000FFF7CCFE00251BE0E20920210E48FFF7FF
:1009A000C5FE6006040E022004F02EFE0122102176
:1009B0000948FFF7BBFE022004F026FE00221021AA
:1009C0000548FFF7B3FE022004F01EFE681CC5B206
:1009D000082DE1DB70BD0000001C024010B513487B
:1009E000006820F44060114908600846006840F43F
:1009F00080600860012220210C48FFF797FE012249
:100A000010210A48FFF792FE042004F0FDFD0022A9
:100A100020210648FFF78AFE042004F0F5FD00229D
:100A200010210248FFF782FE10BD0000001C0240AA
:100A300010B51348006820F440601149086008466A
:100A4000006840F480600860002210210C48FFF725
:100A50006DFE002220210A48FFF768FE042004F002
:100A6000D3FD012210210648FFF760FE042004F0A8
:100A7000CBFD012220210248FFF758FE10BD0000E7
:100A8000001C024010B500241748006820F44060A4
:100A900015490860084600680860012220211248B4
:100AA000FFF744FE012004F0AFFD012210210E48A3
:100AB000FFF73CFE012004F0A7FD07E0601CC4B274
:100AC000FA2C03DDFFF7B4FF012010BD20210648FA
:100AD000FFF724FE0028F1D1002210210248FFF781
:100AE00025FE0020F1E70000001C02401CB517485D
:100AF000006840F00100154908600846006840F0B1
:100B0000040008600846006840F080000860022089
:100B100000210B460A46CDE9001001210C48FFF7E1
:100B20000DFE012000210B460A46CDE900104103CD
:100B30000848FFF703FE012000210B460A46CDE9D5
:100B400000100C210448FFF7F9FD1CBD30380240AD
:100B50000000024000080240001C024010B504469C
:100B600014B101202D4908702C480078002839D094
:100B700008212B48FFF7D2FD80B104212848FFF758
:100B8000CDFD58B14FF400512648FFF7C7FD28B1FD
:100B900001212548FFF7C2FD012823D10A2004F0D6
:100BA00017FD00201D49087008211D48FFF7B6FDFC
:100BB00008B9012010BD04211948FFF7AFFD08B99D
:100BC0000220F7E74FF400511648FFF7A7FD08B9D8
:100BD0000320EFE701211448FFF7A0FD01281BD1F6
:100BE0000420E7E708210E48FFF798FD012813D1FC
:100BF00004210B48FFF792FD01280DD1410309485C
:100C0000FFF78CFD012807D101210748FFF786FD7A
:100C100010B90120014908700020CBE73C000220F8
:100C2000001C0240000802400000024070B504466B
:100C300000260D4805880D48006818B1204602F0CE
:100C400083FF0FE00848408845430021084602F032
:100C5000C3FD02F047FF002602E005490C80761C28
:100C6000AE42FAD370BD0000600002207000022086
:100C70000000086010B504465C4884715C48006858
:100C800050B1204603F068F85948C08A5749088097
:100C90005748008B488010BD002C51D1F02053499B
:100CA00008804FF4A07048800846808849F241319E
:100CB000884205D04D48808845F21031884214D1D1
:100CC0002C204A4908812A2048812B208881084607
:100CD000808845F21031884206D14FF4A070434914
:100CE00008804FF4F07048807BE04048808845F2EF
:100CF0001051884210D14FF430503C4908814FF4D4
:100D0000285048814FF42C5088814FF4F0700880AF
:100D10004FF44870488064E03448808841F663119D
:100D200088425ED12C20314908812B2048812A201D
:100D300088814FF4F07008804FF44870488050E08C
:100D40004FF4A07029490880F02048800846808828
:100D500049F24131884205D02448808845F210315B
:100D6000884207D12C20214908812A2048812B2044
:100D7000888129E01D48808845F21051884210D1B1
:100D80004FF43050194908814FF4285048814FF4EE
:100D90002C5088814FF4487008804FF4F0704880E0
:100DA00012E01248808841F6631188420CD12C2051
:100DB0000E4908812A2048812B2088814FF44870F1
:100DC00008804FF4F07048800848808845F2103160
:100DD000884206D14FF4F070044908804FF4A070A7
:100DE0004880002002F0BEFB00BF54E760000220F4
:100DF0007000022070B504460D4616464348006850
:100E000028B132462946204602F0BCFF70BD40485A
:100E1000808849F24131884205D03D48808845F2BA
:100E20001031884214D13A49488902F04FFE20120D
:100E300002F040FEE0B202F03DFE3549888902F042
:100E400045FE281202F036FEE8B202F033FE54E00E
:100E50002F48808845F21051884220D12C4948897A
:100E600002F034FE201202F025FE29494989491C6E
:100E700088B202F02BFEE0B202F01CFE2449888901
:100E800002F024FE281202F015FE21498989491C2E
:100E900088B202F01BFEE8B202F00CFE2DE01C4806
:100EA000808841F66311884227D11948807920B99A
:100EB00017480088401E001B84B21549488902F07B
:100EC00005FE201202F0F6FDE0B202F0F3FD201262
:100ED00002F0F0FDE0B202F0EDFD0D49888902F06C
:100EE000F5FD281202F0E6FDE8B202F0E3FD28125B
:100EF00002F0E0FDE8B202F0DDFD05480089054999
:100F00000880891C0E8000BF80E70000700002206E
:100F100060000220FEFF07602DE9F84F05460E46EF
:100F200017469846DDF828904FF0000B14480068EB
:100F300040B143463A4631462846CDF8009002F08B
:100F400049FF1BE0781B401C1FFA80FB344613E06E
:100F50002146284602F040FC02F0C4FD4FF0000A92
:100F600006E00849A1F800900AF101001FFA80FA92
:100F7000DA45F6DB601C84B24445E9DDBDE8F88F54
:100F800070000220000008601CB503F09FFAFD49C4
:100F900088800846808818B102F0C0FF02F068BA65
:100FA000F948006840F00200F74908600846006808
:100FB00040F018000860F4480830006840F0010074
:100FC000F149083108600120022100230246CDE9E1
:100FD00000102021ED48FFF7B1FB01200321002381
:100FE0000222CDE900104EF2B371E948FFF7A6FBEB
:100FF0000120032100230222CDE900104FF6807169
:10100000E448FFF79BFB0C220021E148FFF766FB59
:101010000C220121DE48FFF761FB0C220421DC4891
:10102000FFF75CFB0C220521D948FFF757FB0C2288
:101030000721D748FFF752FB0C220821D448FFF7BD
:101040004DFB0C220921D248FFF748FB0C220A2154
:10105000CF48FFF743FB0C220D21CD48FFF73EFBA5
:101060000C220E21CA48FFF739FB0C220F21C84879
:10107000FFF734FB0C220721C648FFF72FFB0C2299
:101080000821C448FFF72AFB0C220921C148FFF7B9
:1010900025FB0C220A21BF48FFF720FB0C220B2165
:1010A000BC48FFF71BFB0C221146BA48FFF716FBA2
:1010B0000C220D21B748FFF711FB0C220E21B54879
:1010C000FFF70CFB0C220F21B248FFF707FB0020B3
:1010D0004FF0204108604860AF4908604FF0204061
:1010E000006840F480504FF02041086008460068D6
:1010F00040F4804008600846006840F01000086036
:101100000846406848600846406840F00F00486064
:101110000846406840F4A04048609F480068C1F815
:1011200004010846D0F8040140F00F00C1F80401A2
:101130000846D0F8040140F47060C1F80401084684
:10114000006840F001000860322004F041FAD3202A
:1011500002F0BCFC02F0D4F98A49888002F0D0F990
:101160008849888002F0CCF98649888008468088C2
:101170004FF6FF7101EA00208249888002F0C0F931
:101180008049898808437F4988800846808849F2D9
:101190004131884278D0D42002F098FC02F0B0F9B6
:1011A0007849888002F0ACF97649888002F0A8F985
:1011B00074498880084680884FF6FF7101EA002054
:1011C0007049888002F09CF96E49898808436D490E
:1011D00088800846808845F21031884254D04FF408
:1011E0005A4002F073FC02F08BF9664988804FF494
:1011F0005B4002F06BFC02F083F96249888008468C
:1012000080884FF6FF7101EA00205E4988804FF424
:101210005C4002F05BFC02F073F95A49898808438C
:101220005849888008468088B0F5004F02D145F2C1
:10123000105088805348808845F21051884223D04E
:10124000A12002F043FC02F05BF94E49888002F0D5
:1012500057F94C498880084680884FF6FF7101EAAB
:1012600000204849888002F04BF9464989880843A4
:10127000444988800846808845F26171884203D1DC
:1012800041F663103F4988803E48808849F24131E9
:10129000884276D1CF2002F019FC002002F00AFC2F
:1012A000C12002F007FC302002F004FCED2002F027
:1012B0000DFC642002F0FEFB032002F0FBFB122079
:1012C00002F0F8FB812002F0F5FBE82002F0FEFBC3
:1012D000852002F0EFFB102002F0ECFB7A2002F0F8
:1012E000E9FBCB2002F0F2FB392002F0E3FB2C20DB
:1012F00002F0E0FB002002F0DDFB342002F0DAFB1C
:10130000022002F0D7FBF72002F0E0FB202002F0E1
:10131000D1FBEA2002F0DAFB002002F0CBFB002038
:1013200002F0C8FBC02002F0D1FB1B2002F0C2FB80
:10133000C12002F0CBFB012002F0BCFBC52002F073
:10134000C5FB302002F0B6FB302002F0B3FBC72013
:1013500002F0BCFBB72002F0ADFB362002F0B6FB7A
:10136000482002F0A7FB3A2002F0B0FB552002F023
:10137000A1FBB12002F0AAFB002002F09BFB1A2087
:101380000CE0AAE060000220303802400004024075
:10139000000C024000100240040100A002F08AFB91
:1013A000B62002F093FB0A2002F084FBA22002F098
:1013B00081FBF22002F08AFB002002F07BFB26205A
:1013C00002F084FB012002F075FBE02002F07EFBBE
:1013D0000F2002F06FFB2A2002F06CFB282002F0A5
:1013E00069FB082002F066FB0E2002F063FB082078
:1013F00002F060FB542002F05DFBA92002F05AFBD2
:10140000432002F057FB0A2002F054FB0F2002F0A9
:1014100051FB002002F04EFB002002F04BFB0020AD
:1014200002F048FB002002F045FBE12002F04EFBF9
:10143000002002F03FFB152002F03CFB172002F0D9
:1014400039FB072002F036FB112002F033FB0620A7
:1014500002F030FB2B2002F02DFB562002F02AFB7D
:101460003C2002F027FB052002F024FB102002F0B4
:1014700021FB0F2002F01EFB3F2002F01BFB3F2050
:1014800002F018FB0F2002F015FB2B2002F01EFBD0
:10149000002002F00FFB002002F00CFB012002F004
:1014A00009FB3F2002F006FB2A2002F00FFB002080
:1014B00002F000FB002002F0FDFA002002F0FAFA30
:1014C000EF2002F0F7FA112002F000FB782004F080
:1014D0007FF8292002F0FAFA60E5FE48808845F29C
:1014E0001031884240F07C87ED2002F0EFFA0120B5
:1014F00002F0E0FAFE2002F0DDFAEE2002F0E6FA59
:10150000DE2002F0D7FA212002F0D4FAF12002F016
:10151000DDFA012002F0CEFADF2002F0D7FA102027
:1015200002F0C8FAC42002F0D1FA8F2002F0C2FA09
:10153000C62002F0CBFA002002F0BCFAE22002F052
:10154000B9FAE22002F0B6FAE22002F0B3FABF20C4
:1015500002F0BCFAAA2002F0ADFAB02002F0B6FA0E
:101560000D2002F0A7FA002002F0A4FA0D2002F0EC
:10157000A1FA002002F09EFA112002F09BFA00204E
:1015800002F098FA192002F095FA002002F092FA7F
:10159000212002F08FFA002002F08CFA2D2002F0B8
:1015A00089FA002002F086FA3D2002F083FA00203A
:1015B00002F080FA5D2002F07DFA002002F07AFA53
:1015C0005D2002F077FA002002F074FAB12002F0F8
:1015D0007DFA802002F06EFA002002F06BFA8B2078
:1015E00002F068FA002002F065FA962002F062FA32
:1015F000002002F05FFAB22002F068FA002002F048
:1016000059FA002002F056FA022002F053FA0020A4
:1016100002F050FA032002F04DFA002002F04AFADC
:10162000B32002F053FA002002F044FA002002F046
:1016300041FA002002F03EFA002002F03BFA0020BE
:1016400002F038FA002002F035FA002002F032FAF7
:10165000002002F02FFA002002F02CFA002002F005
:1016600029FA002002F026FA002002F023FA0020D6
:1016700002F020FA002002F01DFA002002F01AFA0F
:10168000002002F017FA002002F014FA002002F005
:1016900011FA002002F00EFA002002F00BFA0020EE
:1016A00002F008FA002002F005FA002002F002FA27
:1016B000002002F0FFF9B42002F008FA8B2002F0BB
:1016C000F9F9002002F0F6F9962002F0F3F9002073
:1016D00002F0F0F9A12002F0EDF9002002F0EAF9A1
:1016E000B52002F0F3F9022002F0E4F9002002F044
:1016F000E1F9032002F0DEF9002002F0DBF904201A
:1017000002F0D8F9002002F0D5F9B62002F0DEF997
:10171000002002F0CFF9002002F0CCF9B72002F04F
:10172000D5F9002002F0C6F9002002F0C3F93F20ED
:1017300002F0C0F9002002F0BDF95E2002F0BAF913
:10174000002002F0B7F9642002F0B4F9002002F0A2
:10175000B1F98C2002F0AEF9002002F0ABF9AC2018
:1017600002F0A8F9002002F0A5F9DC2002F0A2F9AD
:10177000002002F09FF9702002F09CF9002002F096
:1017800099F9902002F096F9002002F093F9EB20ED
:1017900002F090F9002002F08DF9DC2002F08AF9C5
:1017A000002002F087F9B82002F090F9002002F042
:1017B00081F9002002F07EF9002002F07BF9002080
:1017C00002F078F9002002F075F9002002F072F9B9
:1017D000002002F06FF9002002F06CF9BA2002F04C
:1017E00075F9242002F066F9002002F063F9002068
:1017F00002F060F9002002F05DF9C12002F066F904
:10180000202002F057F9002002F054F9542002F091
:1018100051F9002002F04EF9FF2002F04BF90020B0
:1018200002F048F9C22002F051F90A2002F042F910
:10183000002002F03FF9042002F03CF9002002F001
:1018400039F9C32002F042F93C2002F033F90020BC
:1018500002F030F93A2002F02DF9002002F02AF9C6
:10186000392002F027F9002002F024F9372002F095
:1018700021F9002002F01EF93C2002F01BF90020A3
:1018800002F018F9362002F015F9002002F012F9E2
:10189000322002F00FF9002002F00CF92F2002F0A4
:1018A00009F9002002F006F92C2002F003F90020CB
:1018B00002F000F9292002F0FDF8002002F0FAF809
:1018C000262002F0F7F8002002F0F4F8242002F0BD
:1018D000F1F801E060000220002002F0EBF8242083
:1018E00002F0E8F8002002F0E5F8232002F0E2F828
:1018F000002002F0DFF83C2002F0DCF8002002F0CB
:10190000D9F8362002F0D6F8002002F0D3F83220C1
:1019100002F0D0F8002002F0CDF82F2002F0CAF833
:10192000002002F0C7F82C2002F0C4F8002002F0DA
:10193000C1F8292002F0BEF8002002F0BBF82620F2
:1019400002F0B8F8002002F0B5F8242002F0B2F856
:10195000002002F0AFF8242002F0ACF8002002F0E2
:10196000A9F8232002F0A6F8002002F0A3F8C42072
:1019700002F0ACF8622002F09DF8002002F09AF824
:10198000052002F097F8002002F094F8842002F07D
:1019900091F8002002F08EF8F02002F08BF8002081
:1019A00002F088F8182002F085F8002002F082F892
:1019B000A42002F07FF8002002F07CF8182002F04A
:1019C00079F8002002F076F8502002F073F8002039
:1019D00002F070F80C2002F06DF8002002F06AF8B6
:1019E000172002F067F8002002F064F8952002F05A
:1019F00061F8002002F05EF8F32002F05BF80020AE
:101A000002F058F8E62002F055F8002002F052F8F3
:101A1000C52002F05BF8322002F04CF8002002F002
:101A200049F8442002F046F8002002F043F865200F
:101A300002F040F8002002F03DF8762002F03AF87B
:101A4000002002F037F8882002F034F8002002F07D
:101A500031F8C62002F03AF8202002F02BF80020DE
:101A600002F028F8172002F025F8002002F022F8F2
:101A7000012002F01FF8002002F01CF8C72002F03D
:101A800025F8002002F016F8002002F013F80020DC
:101A900002F010F8002002F00DF8C82002F016F84D
:101AA000002002F007F8002002F004F8002002F005
:101AB00001F8002001F0FEFFC92002F007F8002025
:101AC00001F0F8FF002001F0F5FF002001F0F2FF27
:101AD000002001F0EFFF002001F0ECFF002001F0FA
:101AE000E9FF002001F0E6FF002001F0E3FF002005
:101AF00001F0E0FF002001F0DDFF002001F0DAFF3F
:101B0000002001F0D7FF002001F0D4FF002001F0F9
:101B1000D1FF002001F0CEFF002001F0CBFFE0203C
:101B200001F0D4FF162001F0C5FF002001F0C2FF34
:101B30001C2001F0BFFF002001F0BCFF212001F0BC
:101B4000B9FF002001F0B6FF362001F0B3FF0020FE
:101B500001F0B0FF462001F0ADFF002001F0AAFF28
:101B6000522001F0A7FF002001F0A4FF642001F043
:101B7000A1FF002001F09EFF7A2001F09BFF0020D2
:101B800001F098FF8B2001F095FF002001F092FFFB
:101B9000992001F08FFF002001F08CFFA82001F0B8
:101BA00089FF002001F086FFB92001F083FF0020AB
:101BB00001F080FFC42001F07DFF002001F07AFFDA
:101BC000CA2001F077FF002001F074FFD22001F05D
:101BD00071FF002001F06EFFD92001F06BFF0020A3
:101BE00001F068FFE02001F065FF002001F062FFD6
:101BF000F32001F05FFF002001F05CFFE12001F025
:101C000065FF162001F056FF002001F053FF1C2055
:101C100001F050FF002001F04DFF222001F04AFFAB
:101C2000002001F047FF362001F044FF002001F0C2
:101C300041FF452001F03EFF002001F03BFF522014
:101C400001F038FF002001F035FF642001F032FF81
:101C5000002001F02FFF7A2001F02CFF002001F07E
:101C600029FF8B2001F026FF002001F023FF99209F
:101C700001F020FF002001F01DFFA82001F01AFF55
:101C8000002001F017FFB92001F014FF002001F03F
:101C900011FFC42001F00EFF002001F00BFFCA204D
:101CA00001F008FF002001F005FFD22001F002FF43
:101CB000002001F0FFFED82001F0FCFE002001F022
:101CC000F9FEE02001F0F6FE002001F0F3FEF32023
:101CD00001F0F0FE002001F0EDFEE22001F0F6FE42
:101CE000052001F0E7FE002001F0E4FE0B2001F0EA
:101CF000E1FE002001F0DEFE1B2001F0DBFE0020F3
:101D000001F0D8FE342001F0D5FE002001F0D2FE13
:101D1000442001F0CFFE002001F0CCFE4F2001F066
:101D2000C9FE002001F0C6FE612001F0C3FE0020C4
:101D300001F0C0FE792001F0BDFE002001F0BAFEE6
:101D4000882001F0B7FE002001F0B4FE972001F0DA
:101D5000B1FE002001F0AEFEA62001F0ABFE002097
:101D600001F0A8FEB72001F0A5FE002001F0A2FEC0
:101D7000C22001F09FFE002001F09CFEC72001F070
:101D800099FE002001F096FED12001F093FE002084
:101D900001F090FED62001F08DFE002001F08AFEB9
:101DA000DD2001F087FE002001F084FEF32001F029
:101DB00081FE002001F07EFEE32001F087FE052079
:101DC00001F078FE002001F075FE0A2001F072FE9D
:101DD000002001F06FFE1C2001F06CFE002001F0DD
:101DE00069FE332001F066FE002001F063FE44200E
:101DF00001F060FE002001F05DFE502001F05AFE6F
:101E0000002001F057FE622001F054FE002001F096
:101E100051FE782001F04EFE002001F04BFE88209C
:101E200001F048FE002001F045FE972001F042FE3F
:101E3000002001F03FFEA62001F03CFE002001F052
:101E400039FEB72001F036FE002001F033FEC2203B
:101E500001F030FE002001F02DFEC72001F02AFE27
:101E6000002001F027FED12001F024FE002001F027
:101E700021FED52001F01EFE002001F01BFEDD201A
:101E800001F018FE002001F015FEF32001F012FE13
:101E9000002001F00FFEE42001F018FE012001F007
:101EA00009FE002001F006FE012001F003FE0020E3
:101EB00001F000FE022001F0FDFD002001F0FAFD1E
:101EC0002A2001F0F7FD002001F0F4FD3C2001F094
:101ED000F1FD002001F0EEFD4B2001F0EBFD0020B4
:101EE00001F0E8FD5D2001F0E5FD002001F0E2FDDC
:101EF000742001F0DFFD002001F0DCFD842001F002
:101F0000D9FD002001F0D6FD932001F0D3FD002083
:101F100001F0D0FDA22001F0CDFD002001F0CAFDAE
:101F2000B32001F0C7FD002001F0C4FDBE2001F088
:101F3000C1FD002001F0BEFDC42001F0BBFD00206A
:101F400001F0B8FDCD2001F0B5FD002001F0B2FD9B
:101F5000D32001F0AFFD002001F0ACFDDD2001F049
:101F6000A9FD002001F0A6FDF32001F0A3FD002053
:101F700001F0A0FDE52001F0A9FD002001F09AFD8F
:101F8000002001F097FD002001F094FD002001F0F9
:101F900091FD022001F08EFD002001F08BFD292033
:101FA00001F088FD002001F085FD3C2001F082FD5C
:101FB000002001F07FFD4B2001F07CFD002001F0AE
:101FC00079FD5D2001F076FD002001F073FD7420A5
:101FD00001F070FD002001F06DFD842001F06AFD2C
:101FE000002001F067FD932001F064FD002001F066
:101FF00061FDA22001F05EFD002001F05BFDB32039
:1020000001F058FD002001F055FDBE2001F052FD09
:10201000002001F04FFDC42001F04CFD002001F034
:1020200049FDCD2001F046FD002001F043FDD32005
:1020300001F040FD002001F03DFDDC2001F03AFD03
:10204000002001F037FDF32001F034FD002001F005
:1020500031FDE62001F03AFD112001F02BFD0020BA
:1020600001F028FD342001F025FD002001F022FDC3
:10207000562001F01FFD002001F01CFD762001F02C
:1020800019FD002001F016FD772001F013FD00205E
:1020900001F010FD662001F00DFD002001F00AFDA9
:1020A000882001F007FD002001F004FD992001F0D7
:1020B00001FD002001F0FEFCBB2001F0FBFC002034
:1020C00001F0F8FC992001F0F5FC002001F0F2FC91
:1020D000662001F0EFFC002001F0ECFC552001F03F
:1020E000E9FC002001F0E6FC552001F0E3FC0020B3
:1020F00001F0E0FC452001F0DDFC002001F0DAFCFD
:10210000432001F0D7FC002001F0D4FC442001F072
:10211000D1FC002001F0CEFCE72001F0D7FC3220FA
:1021200001F0C8FC002001F0C5FC552001F0C2FC04
:10213000002001F0BFFC762001F0BCFC002001F083
:10214000B9FC662001F0B6FC002001F0B3FC67206A
:1021500001F0B0FC002001F0ADFC672001F0AAFC0A
:10216000002001F0A7FC872001F0A4FC002001F072
:10217000A1FC992001F09EFC002001F09BFCBB20FB
:1021800001F098FC002001F095FC992001F092FCF0
:10219000002001F08FFC772001F08CFC002001F082
:1021A00089FC442001F086FC002001F083FC5620CD
:1021B00001F080FC002001F07DFC232001F07AFC7E
:1021C000002001F077FC332001F074FC002001F0C6
:1021D00071FC452001F06EFC002001F06BFCE82052
:1021E00001F074FC002001F065FC002001F062FCAD
:1021F000992001F05FFC002001F05CFC872001F0D9
:1022000059FC002001F056FC882001F053FC00200E
:1022100001F050FC772001F04DFC002001F04AFC59
:10222000662001F047FC002001F044FC882001F00A
:1022300041FC002001F03EFCAA2001F03BFC002004
:1022400001F038FCBB2001F035FC002001F032FC2D
:10225000992001F02FFC002001F02CFC662001F0F9
:1022600029FC002001F026FC552001F023FC002071
:1022700001F020FC552001F01DFC002001F01AFCAB
:10228000442001F017FC002001F014FC442001F070
:1022900011FC002001F00EFC552001F00BFC002089
:1022A00001F008FCE92001F011FCAA2001F002FC79
:1022B000002001F0FFFB002001F0FCFB002001F0FA
:1022C000F9FB002001F002FCAA2001F0F3FBCF2073
:1022D00001F0FCFB002001F0EDFB002001F0EAFB27
:1022E000002001F0E7FB002001F0E4FB002001F0FA
:1022F000E1FB002001F0DEFB002001F0DBFB002011
:1023000001F0D8FB002001F0D5FB002001F0D2FB4A
:10231000002001F0CFFB002001F0CCFB002001F0F9
:10232000C9FB002001F0C6FB002001F0C3FB002028
:1023300001F0C0FB002001F0BDFBF02001F0C6FB66
:10234000002001F0B7FB502001F0B4FB002001F0A9
:10235000B1FB002001F0AEFB002001F0ABFBF3204D
:1023600001F0B4FB002001F0A5FBF92001F0AEFB69
:10237000062001F09FFB102001F09CFB292001F0BA
:1023800099FB002001F096FB3A2001F09FFB5520BD
:1023900001F090FB112001F099FB642003F018F983
:1023A000292001F093FB352001F090FB002001F083
:1023B00081FB512001F08AFBFF2001F07BFB5320C1
:1023C00001F084FB2C2001F075FB552001F07EFB11
:1023D000822001F06FFB2C2001F078FB01F048B85F
:1023E000FE48808845F2105188427DD155214FF436
:1023F000704001F081FBAA214FF2010001F07CFB4B
:1024000052214FF2020001F077FB08214FF2030046
:1024100001F072FB01214FF2040001F06DFB0D2170
:102420004FF4304001F068FB0D214BF2010001F048
:1024300063FB0D214BF2020001F05EFB34214FF4EF
:10244000364001F059FB34214BF2016001F054FB9E
:1024500034214BF2026001F04FFB0D214FF431406B
:1024600001F04AFB0D214BF2011001F045FB0D215B
:102470004BF2021001F040FB34214FF4374001F0E1
:102480003BFB34214BF2017001F036FB34214BF25F
:10249000027001F031FB00214FF4324001F02CFBBF
:1024A00000214BF2012001F027FB00214BF202201A
:1024B00001F022FB24214FF4384001F01DFB2421C0
:1024C0004BF6010001F018FB24214BF6020001F04D
:1024D00013FB01214FF43F4001F00EFB0F214FF49D
:1024E000334001F009FB00E0FDE30F214BF2013026
:1024F00001F002FB0F214BF2023001F0FDFA342112
:102500004FF4394001F0F8FA34214BF6011001F094
:10251000F3FA34214BF6021001F0EEFA08214FF4E1
:10252000354001F0E9FA08214BF2015001F0E4FADC
:1025300008214BF2025001F0DFFA03214FF4424030
:1025400001F0DAFA24214FF43A4001F0D5FA2421BF
:102550004BF6012001F0D0FA24214BF6022001F0C5
:10256000CBFA00214FF43C4001F0C6FA78214BF63B
:10257000014001F0C1FA00214BF6024001F0BCFA23
:1025800000214FF43D4001F0B7FA78214BF601509D
:1025900001F0B2FA00214BF6025001F0ADFA002131
:1025A0004FF43E4001F0A8FA64214BF6016001F0BF
:1025B000A3FA00214FF4514001F09EFA33214DF26D
:1025C000011001F099FA00214DF2021001F094FA85
:1025D00034214DF2031001F08FFA00214DF2041066
:1025E00001F08AFA3A214DF2051001F085FA002136
:1025F0004DF2061001F080FA4A214DF2071001F069
:102600007BFA00214DF2081001F076FA5C214DF2C0
:10261000091001F071FA00214DF20A1001F06CFA74
:1026200081214DF20B1001F067FA00214DF20C10E0
:1026300001F062FAA6214DF20D1001F05DFA0021C1
:102640004DF20E1001F058FAE5214DF20F1001F095
:1026500053FA01214DF2101001F04EFA13214DF200
:10266000111001F049FA01214DF2121001F044FA63
:1026700054214DF2131001F03FFA01214DF21410D4
:1026800001F03AFA82214DF2151001F035FA0121DC
:102690004DF2161001F030FACA214DF2171001F078
:1026A0002BFA02214DF2181001F026FA00214DF20A
:1026B000191001F021FA02214DF21A1001F01CFA52
:1026C00001214DF21B1001F017FA02214DF21C10EE
:1026D00001F012FA34214DF21D1001F00DFA022121
:1026E0004DF21E1001F008FA67214DF21F1001F0A3
:1026F00003FA02214DF2201001F0FEF984214DF27F
:10270000211001F0F9F902214DF2221001F0F4F943
:10271000A4214DF2231001F0EFF902214DF2241013
:1027200001F0EAF9B7214DF2251001F0E5F9022197
:102730004DF2261001F0E0F9CF214DF2271001F003
:10274000DBF902214DF2281001F0D6F9DE214DF21D
:10275000291001F0D1F902214DF22A1001F0CCF933
:10276000F2214DF22B1001F0C7F902214DF22C108D
:1027700001F0C2F9FE214DF22D1001F0BDF9032147
:102780004DF22E1001F0B8F910214DF22F1001F08A
:10279000B3F903214DF2301001F0AEF933214DF2BF
:1027A000311001F0A9F903214DF2321001F0A4F922
:1027B0006D214DF2331001F09FF900214FF452408A
:1027C00001F09AF933214DF2012001F095F9002131
:1027D0004DF2022001F090F9342101E06000022066
:1027E0004DF2032001F088F900214DF2042001F0A0
:1027F00083F93A214DF2052001F07EF900214DF2D6
:10280000062001F079F94A214DF2072001F074F910
:1028100000214DF2082001F06FF95C214DF20920F2
:1028200001F06AF900214DF20A2001F065F98121D9
:102830004DF20B2001F060F900214DF20C2001F067
:102840005BF9A6214DF20D2001F056F900214DF261
:102850000E2001F051F9E5214DF20F2001F04CF965
:1028600001214DF2102001F047F913214DF2112002
:1028700001F042F901214DF2122001F03DF95421FD
:102880004DF2132001F038F901214DF2142001F02E
:1028900033F982214DF2152001F02EF901214DF27C
:1028A000162001F029F9CA214DF2172001F024F970
:1028B00002214DF2182001F01FF900214DF21920DC
:1028C00001F01AF902214DF21A2001F015F9012147
:1028D0004DF21B2001F010F902214DF21C2001F0F5
:1028E0000BF934214DF21D2001F006F902214DF2C1
:1028F0001E2001F001F967214DF21F2001F0FCF8C4
:1029000002214DF2202001F0F7F884214DF2212020
:1029100001F0F2F802214DF2222001F0EDF8A4219D
:102920004DF2232001F0E8F802214DF2242001F0BD
:10293000E3F8B7214DF2252001F0DEF802214DF237
:10294000262001F0D9F8CF214DF2272001F0D4F84C
:1029500002214DF2282001F0CFF8DE214DF229208E
:1029600001F0CAF802214DF22A2001F0C5F8F22147
:102970004DF22B2001F0C0F802214DF22C2001F085
:10298000BBF8FE214DF22D2001F0B6F803214DF2E7
:102990002E2001F0B1F810214DF22F2001F0ACF8FB
:1029A00003214DF2302001F0A7F833214DF2312000
:1029B00001F0A2F803214DF2322001F09DF86D21C3
:1029C0004DF2332001F098F800214FF4534001F00C
:1029D00093F833214DF2013001F08EF800214DF2D1
:1029E000023001F089F834214DF2033001F084F80F
:1029F00000214DF2043001F07FF83A214DF205300C
:102A000001F07AF800214DF2063001F075F84A2104
:102A10004DF2073001F070F800214DF2083001F05E
:102A20006BF85C214DF2093001F066F800214DF29F
:102A30000A3001F061F881214DF20B3001F05CF8B1
:102A400000214DF20C3001F057F8A6214DF20D3067
:102A500001F052F800214DF20E3001F04DF8E52161
:102A60004DF20F3001F048F801214DF2103001F025
:102A700043F813214DF2113001F03EF801214DF2DF
:102A8000123001F039F854214DF2133001F034F8CE
:102A900001214DF2143001F02FF882214DF2153052
:102AA00001F02AF801214DF2163001F025F8CA2173
:102AB0004DF2173001F020F802214DF2183001F0EC
:102AC0001BF800214DF2193001F016F802214DF2E9
:102AD0001A3001F011F801214DF21B3001F00CF811
:102AE00002214DF21C3001F007F834214DF21D3067
:102AF00001F002F802214DF21E3000F0FDFF6721C7
:102B00004DF21F3000F0F8FF02214DF2203000F0AE
:102B1000F3FF84214DF2213000F0EEFF02214DF24F
:102B2000223000F0E9FFA4214DF2233000F0E4FF51
:102B300002214DF2243000F0DFFFB7214DF22530A5
:102B400000F0DAFF02214DF2263000F0D5FFCF2150
:102B50004DF2273000F0D0FF02214DF2283000F076
:102B6000CBFFDE214DF2293000F0C6FF02214DF2ED
:102B70002A3000F0C1FFF2214DF22B3000F0BCFFF3
:102B800002214DF22C3000F0B7FFFE214DF22D3026
:102B900000F0B2FF03214DF22E3000F0ADFF102106
:102BA0004DF22F3000F0A8FF03214DF2303000F03D
:102BB000A3FF33214DF2313000F09EFF03214DF28F
:102BC000323000F099FF6D214DF2333000F094FF68
:102BD00000214FF4544000F08FFF33214DF20140AB
:102BE00000F08AFF00214DF2024000F085FF342101
:102BF0004DF2034000F080FF00214DF2044000F050
:102C00007BFF3A214DF2054000F076FF00214DF2A6
:102C1000064000F071FF4A214DF2074000F06CFFC2
:102C200000214DF2084000F067FF5C214DF20940A1
:102C300000F062FF00214DF20A4000F05DFF8121AB
:102C40004DF20B4000F058FF00214DF20C4000F017
:102C500053FFA6214DF20D4000F04EFF00214DF232
:102C60000E4000F049FFE5214DF20F4000F044FF17
:102C700001214DF2104000F03FFF13214DF21140B1
:102C800000F03AFF01214DF2124000F035FF5421CF
:102C90004DF2134000F030FF01214DF2144000F0DE
:102CA0002BFF82214DF2154000F026FF01214DF24D
:102CB000164000F021FFCA214DF2174000F01CFF22
:102CC00002214DF2184000F017FF00214DF219408B
:102CD00000F012FF02214DF21A4000F00DFF012119
:102CE0004DF21B4000E005E300F006FF02214DF22B
:102CF0001C4000F001FF34214DF21D4000F0FCFEAD
:102D000002214DF21E4000F0F7FE67214DF21F40F8
:102D100000F0F2FE02214DF2204000F0EDFE842191
:102D20004DF2214000F0E8FE02214DF2224000F079
:102D3000E3FEA4214DF2234000F0DEFE02214DF21D
:102D4000244000F0D9FEB7214DF2254000F0D4FE1A
:102D500002214DF2264000F0CFFECF214DF2274058
:102D600000F0CAFE02214DF2284000F0C5FEDE212F
:102D70004DF2294000F0C0FE02214DF22A4000F041
:102D8000BBFEF2214DF22B4000F0B6FE02214DF2C7
:102D90002C4000F0B1FEFE214DF22D4000F0ACFEC3
:102DA00003214DF22E4000F0A7FE10214DF22F40DE
:102DB00000F0A2FE03214DF2304000F09DFE3321D1
:102DC0004DF2314000F098FE03214DF2324000F008
:102DD00093FE6D214DF2334000F08EFE00214FF442
:102DE000554000F089FE33214DF2015000F084FE81
:102DF00000214DF2025000F07FFE34214DF20350CD
:102E000000F07AFE00214DF2045000F075FE3A21E8
:102E10004DF2055000F070FE00214DF2065000F01A
:102E20006BFE4A214DF2075000F066FE00214DF284
:102E3000085000F061FE5C214DF2095000F05CFE8C
:102E400000214DF20A5000F057FE81214DF20B5047
:102E500000F052FE00214DF20C5000F04DFEA62174
:102E60004DF20D5000F048FE00214DF20E5000F0E2
:102E700043FEE5214DF20F5000F03EFE01214DF2E0
:102E8000105000F039FE13214DF2115000F034FEC5
:102E900001214DF2125000F02FFE54214DF213503B
:102EA00000F02AFE01214DF2145000F025FE82218F
:102EB0004DF2155000F020FE01214DF2165000F0A9
:102EC0001BFECA214DF2175000F016FE02214DF2F2
:102ED000185000F011FE00214DF2195000F00CFEC8
:102EE00002214DF21A5000F007FE01214DF21B5055
:102EF00000F002FE02214DF21C5000F0FDFD3421D5
:102F00004DF21D5000F0F8FD02214DF21E5000F070
:102F1000F3FD67214DF21F5000F0EEFD02214DF24E
:102F2000205000F0E9FD84214DF2215000F0E4FD35
:102F300002214DF2225000F0DFFDA4214DF223507A
:102F400000F0DAFD02214DF2245000F0D5FDB7214A
:102F50004DF2255000F0D0FD02214DF2265000F038
:102F6000CBFDCF214DF2275000F0C6FD02214DF2DE
:102F7000285000F0C1FDDE214DF2295000F0BCFDCB
:102F800002214DF22A5000F0B7FDF2214DF22B50F4
:102F900000F0B2FD02214DF22C5000F0ADFDFE21FB
:102FA0004DF22D5000F0A8FD03214DF22E5000F0FF
:102FB000A3FD10214DF22F5000F09EFD03214DF294
:102FC000305000F099FD33214DF2315000F094FD66
:102FD00003214DF2325000F08FFD6D214DF2335040
:102FE00000F08AFD00214FF4564000F085FD3321AA
:102FF0004DF2016000F080FD00214DF2026000F012
:103000007BFD34214DF2036000F076FD00214DF28E
:10301000046000F071FD3A214DF2056000F06CFD96
:1030200000214DF2066000F067FD4A214DF2076075
:1030300000F062FD00214DF2086000F05DFD5C21B2
:103040004DF2096000F058FD00214DF20A6000F0D9
:1030500053FD81214DF20B6000F04EFD00214DF239
:103060000C6000F049FDA6214DF20D6000F044FD1A
:1030700000214DF20E6000F03FFDE5214DF20F60A2
:1030800000F03AFD01214DF2106000F035FD1321F2
:103090004DF2116000F030FD01214DF2126000F0A0
:1030A0002BFD54214DF2136000F026FD01214DF25D
:1030B000146000F021FD82214DF2156000F01CFD2E
:1030C00001214DF2166000F017FDCA214DF2176084
:1030D00000F012FD02214DF2186000F00DFD0021FC
:1030E0004DF2196000F008FD02214DF21A6000F067
:1030F00003FD01214DF21B6000F0FEFC02214DF2A8
:103100001C6000F0F9FC34214DF21D6000F0F4FC6D
:1031100002214DF21E6000F0EFFC67214DF21F60AE
:1031200000F0EAFC02214DF2206000F0E5FC842171
:103130004DF2216000F0E0FC02214DF2226000F02F
:10314000DBFCA4214DF2236000F0D6FC02214DF2FD
:10315000246000F0D1FCB7214DF2256000F0CCFCDA
:1031600002214DF2266000F0C7FCCF214DF227600E
:1031700000F0C2FC02214DF2286000F0BDFCDE210F
:103180004DF2296000F0B8FC02214DF22A6000F0F7
:10319000B3FCF2214DF22B6000F0AEFC02214DF2A7
:1031A0002C6000F0A9FCFE214DF22D6000F0A4FC83
:1031B00003214DF22E6000F09FFC10214DF22F6094
:1031C00000F09AFC03214DF2306000F095FC3321B1
:1031D0004DF2316000F090FC03214DF2326000F0BE
:1031E0008BFC6D214DF2336000F086FC55214FF4CD
:1031F000704000F081FCAA214FF2010000F07CFC3D
:1032000052214FF2020000F077FC08214FF2030038
:1032100000F072FC00214FF2040000F06DFCCC21A4
:103220004FF4314000F068FC00214BF2011000F037
:1032300063FC05214FF4364000F05EFC70214FF432
:10324000374000F059FC70214BF2017000F054FC43
:1032500001214FF4384000F04FFC03214BF60100F0
:1032600000F04AFC03214BF6020000F045FC03216C
:103270004BF6030000F040FC02214FF43C4000F00C
:103280003BFC00214BF6014000F036FC00214BF6E0
:10329000024000F031FCD0214FF4494000F02CFCFA
:1032A00002214CF6011000F027FC50214CF60210D0
:1032B00000F022FC50214CF6031000F01DFC5021C0
:1032C0004CF6041000F018FC00214FF4545000F0AC
:1032D00013FC55214FF4685000F00EFC4FF4885059
:1032E00000F0F4FB782002F08FF94FF4245000F046
:1032F000EDFBBDE07F48808841F663118842F8D13C
:10330000E22000F0E3FB1D2000F0D4FB022000F0DF
:10331000D1FB042000F0CEFB642002F075F9E02020
:1033200000F0D4FB012000F0C5FB0A2002F050F9A8
:10333000E02000F0CBFB032000F0BCFB0C2002F0EF
:1033400047F9012000F0C2FB0A2002F041F9E62013
:1033500000F0BCFB2F2000F0ADFBFF2000F0AAFB2B
:10336000FF2000F0A7FBB02000F0B0FB202000F011
:10337000A1FB002000F09EFB032000F09BFB40F22D
:103380001F3000F097FB012000F094FB40F2DF10AB
:1033900000F090FB002000F08DFBB42000F096FBC5
:1033A000042000F087FB40F21F4000F083FB002068
:1033B00000F080FB2E2000F07DFB002000F07AFB67
:1033C000002000F077FB002000F074FB002000F0EC
:1033D00071FBB62000F07AFB022000F06BFB4FF48B
:1033E000037000F067FB002000F064FB172000F082
:1033F00061FB152000F05EFB002000F05BFB00206D
:1034000000F058FBF02000F061FB032000F052FBBD
:10341000292000F05BFBD02000F058FB002000F0DA
:1034200049FBBE2000F052FB052000F043FBFE20CC
:1034300000F040FB012000F03DFB002000F03AFBD3
:10344000002000F037FB002000F034FBB82000F033
:103450003DFB032000F02EFB012000F02BFBBA20E7
:1034600000F034FB012000F025FB642000F052F84E
:103470002048808849F24131884211D01D48808817
:1034800045F2103188420BD01A48808845F210511D
:10349000884205D01748808841F6631188421CD1C4
:1034A0001548006820F00F004FF02041C1F80401DA
:1034B0000846D0F8040120F47060C1F80401084601
:1034C000D0F8040140F00400C1F804010846D0F827
:1034D000040140F48060C1F804010020FDF7CAFB3C
:1034E000012220210548FDF721F94FF6FF70FDF775
:1034F0009DFB1CBD60000220040100A000040240EE
:1035000008B5034800880090BDF8000008BD000021
:103510000000086000B50246BE2000F0D7FA052082
:1035200000F0C8FA00EE102AB8EE400B9FED0B1B1E
:1035300020EE010BBCEEC00B10EE101A88B200F0AA
:10354000B9FA012000F0B6FAFF2000F0B3FA00202B
:1035500000F0B0FA002000F0ADFA00BD66666666C5
:1035600066660440F0B50546002400279948807936
:10357000012805D19748808841F66311884208D117
:1035800094488079F0B99348808841F66311884265
:1035900018D1082D15D2DFE805F00406080A0C0E34
:1035A000101206250DE007250BE0042509E005258E
:1035B00007E0012505E0002503E0032501E00225E1
:1035C00000BF00BF8348808849F24131884211D052
:1035D0008048808845F2103188420BD07D48808831
:1035E00045F21051884205D07A48808841F663112F
:1035F00088427DD1082D1CD2DFE805F00406090CB5
:103600000F12151800BF14E044F0800411E044F0DC
:1036100040040EE044F0C0040BE044F0200408E055
:1036200044F0600405E044F0A00402E044F0E0044B
:1036300000BF00BF6748808845F21051884202D120
:103640004FF4585700E036276248808845F2103121
:1036500088420DD05F48808845F21051884207D0DB
:103660005C48808841F66311884201D044F0080428
:103670002146384600F040FA5648808841F66311EA
:1036800088421DD004F0200068B15248008851499A
:103690004988884214DA4F48068840884D49088096
:1036A000084646800CE04B4800884A4949888842D1
:1036B00006DD484806884088464908800846468016
:1036C0004448808845F21051884254D14149488984
:1036D00000F0FCF9002000F0EDF93E494989491C51
:1036E00088B200F0F3F9002000F0E4F9394900E075
:1036F0006FE04989891C88B200F0E8F935490988EA
:10370000491EC1F30F2000F0D5F932494989C91C7F
:1037100088B200F0DBF92F490978491EC8B200F0E1
:10372000C9F92C49888900F0D1F9002000F0C2F9CC
:1037300028498989491C88B200F0C8F9002000F0A6
:10374000B9F924498989891C88B200F0BFF9214957
:103750004988491EC1F30F2000F0ACF91D49898941
:10376000C91C88B200F0B2F91A498978491EC8B25A
:1037700000F0A0F92DE01749488900F0A7F90020D2
:1037800000F098F9002000F095F912490988491EC7
:10379000C1F30F2000F08EF90E490978491EC8B216
:1037A00000F088F90B49888900F090F9002000F0BA
:1037B00081F9002000F07EF906494988491EC1F3CD
:1037C0000F2000F077F903498978491EC8B200F04C
:1037D00071F9F0BD6000022010B502460C464B485E
:1037E000808849F24131884205D04848808845F2B6
:1037F0001031884214D14549488900F067F9101208
:1038000000F058F9D0B200F055F94049888900F02D
:103810005DF9201200F04EF9E0B200F04BF973E0D0
:103820003A48808841F66311884247D13748807909
:10383000A8B936480088401E801A82B233494889A8
:1038400000F044F9002000F035F9002000F032F9D2
:10385000101200F02FF9D0B200F02CF916E02B492D
:10386000488900F033F9101200F024F9D0B200F0CA
:1038700021F926490988491EC1F30F2000F01AF9E1
:1038800022490978491EC8B200F014F91F498889F5
:1038900000F01CF9201200F00DF9E0B200F00AF976
:1038A0001A494988491EC1F30F2000F003F917494E
:1038B0008978491EC8B200F0FDF825E013488088D9
:1038C00045F2105188421FD11049488900F0FEF896
:1038D000101200F0EFF80D494989491C88B200F038
:1038E000F5F8D0B200F0E6F80849888900F0EEF863
:1038F000201200F0DFF805498989491C88B200F0E0
:10390000E5F8E0B200F0D6F810BD0000600002203B
:103910002DE9F84F80460F4616461C46BB4620460A
:10392000E31704EB5373DB1021464FEAE47C04EB0E
:103930005C7C4FEAEC0CA4EBCC0CBCF1000F02D089
:103940004FF0010C01E04FF0000C6344224604EB01
:10395000D27C4FEA6C0C03FB0CF3DBB20093A6F1B4
:103960002000C6B200255EE00C2C07D106EB460015
:103970002F4901EB800010F805901BE0102C05D1B9
:103980002C4800EB061010F8059013E0182C07D116
:1039900006EBC600284901EB800010F8059009E00D
:1039A000202C05D1254800EBC61010F8059001E049
:1039B000BDE8F88F4FF0000A2FE009F0800030B129
:1039C0001F48394602684046FDF714FA07E00A9896
:1039D00028B91C48394602684046FDF70BFA4FEA01
:1039E00049604FEA1069781C87B217484088B8428E
:1039F00000DCDDE7A7EB0B00A0420AD15F4608F12F
:103A000001001FFA80F810480088404500DCCFE72D
:103A100006E00AF1010000F0FF0ABAF1080FCCDB62
:103A200000BF681CC5B2009885429DDB00BFBFE7A0
:103A3000DE580008525D0008426300089E700008CE
:103A40002C00022030000220600002202DE9F84FF7
:103A500004460D4690469946DDE90A6704F0FF0AE0
:103A600008EB04001FFA80F809EB05001FFA80F943
:103A700016E0444502DB5446A81985B24D4500DBEB
:103A800014E0002000903A78334629462046FFF79C
:103A90003FFF304606EBD07104EB61018CB27F1C16
:103AA00038787E2802DC38782028E2DA00BFBDE8CA
:103AB000F88F000001B5BDF800000090BDF80000CF
:103AC0000149088008BD00000000086001B5BDF88C
:103AD00000000090BDF800000149088008BD00000A
:103AE000FEFF076002480089024908807047000015
:103AF00060000220FEFF0760024A1080921C1180C5
:103B000070470000FEFF07601CB50D48006840F0DC
:103B100002000B4908600120032100230246CDE981
:103B200000100848FCF70AFE012202210548FCF7B4
:103B3000FDFD012211460348FCF7F8FD1CBD000005
:103B4000303802400004024018B50446064800948C
:103B5000008B401E83B20448C08A401E82B20021FE
:103B6000084600F037F918BD70000220F0B5034692
:103B70000C461546002100200022214E366826F012
:103B800080561F4F3E6001E04E1CB1B21C4E36689D
:103B900006F000561EB141F6FF76B142F4DB41F665
:103BA000FF76B14201D1012029E042EA831242EAC4
:103BB0000472134E88363260361D366826F440365D
:103BC0000F4F8C373E603E46366846EA05463E60FB
:103BD0000B4E366846F08056094F3E6001E04E1CA1
:103BE000B1B2074E366806F000561EB941F6FF76B0
:103BF000B142F4DB41F6FF76B14200D10220F0BDC4
:103C0000003802402DE9F04F04460D4616464FF0AD
:103C1000000CDFF8349199F81590B9F1000F04D039
:103C20002046294632461F4611E02846DFF8189103
:103C3000D9F80490A9EB0609A9F101011A46DFF8A9
:103C40000891D9F80490A9EB0409A9F10107DFF85C
:103C5000F890B9F80090A2EB000A0AF1010AA9EB6A
:103C60000A091FFA89F8DFF8E09099F81490DFF854
:103C7000DCA05AF82990DFF8D0A0DAF81CA0DFF811
:103C8000C8B0DBF800B00BFB010B0AFB0B9EDFF8A2
:103C9000C090D9F8009049F40009DFF8B4A0CAF840
:103CA0000090DFF8B090D9F8009029F00109DFF812
:103CB000A4A0CAF800904FF00009CAF800904FF095
:103CC0000209CAF81C904FF00009CAF81090D146BA
:103CD000C9F84080DDF82490CAF80C90D146C9F8A4
:103CE0003CE0A7EB010909F10109A2EB000A0AF186
:103CF000010A49EA0A49DFF85CA0CAF84490D146B3
:103D0000D9F8009049F00109CAF8009005E00CF1DB
:103D1000010CBCF5001F00D308E0DFF83890D9F89B
:103D2000049009F00209B9F1000FF0D000BFDFF8EC
:103D30002490D9F8089049F00209DFF818A0CAF8D1
:103D40000890BDE8F08F00007000022034000220CF
:103D50003038024000B002400949487530B98988BE
:103D6000074AD18211460988118308E0012806D14B
:103D700003490988024AD182114689881183704714
:103D80007000022070B5114B5B7D6BB10F4BDB698E
:103D90000E4D2D6805FB01056B430C4D2D7D0C4E22
:103DA00056F82550EA520FE0084B1D685B681B1A55
:103DB0005B1E05FB0313054DED696B43034D2D7D24
:103DC000034E56F82550EA5270BD000070000220E4
:103DD000340002202DE9F04F04460D4616464FF000
:103DE000000CDFF8289199F81590B9F1000F04D074
:103DF0002046294632461F4611E02846DFF80C913E
:103E0000D9F80490A9EB0609A9F101011A46DFF8D7
:103E1000FC90D9F80490A9EB0409A9F10107DFF897
:103E2000EC90B9F80090A2EB000A0AF1010AA9EBA4
:103E30000A091FFA89F8DFF8D49099F81490DFF88E
:103E4000D0A05AF82990DFF8C4A0DAF81CA0DFF857
:103E5000BCB0DBF800B00BFB010B0AFB0B9EDFF8DC
:103E6000B490D9F8009049F40009DFF8A8A0CAF886
:103E70000090DFF8A490D9F8009029F00109DFF84C
:103E800098A0CAF800904FF44039CAF800904FF05B
:103E90000209CAF83490D146C9F84080C9F83CE01C
:103EA000A7EB010909F10109A2EB000A0AF1010AD5
:103EB00049EA0A49DFF860A0CAF84490DDF8249086
:103EC000CAF83890D146D9F8009049F00109CAF8EB
:103ED000009005E00CF1010CBCF5001F00D308E0D8
:103EE000DFF83490D9F8049009F00209B9F1000F15
:103EF000F0D000BFDFF82090D9F8089049F002090F
:103F0000DFF814A0CAF80890BDE8F08F7000022016
:103F1000340002203038024000B002407FB5002457
:103F2000002500F0D3FA0546D548006840F08060CF
:103F3000D3490860D2481438006840F00200D049E4
:103F4000143908600846006840F4F07008600120E9
:103F5000022100230246CDE900102021C948FCF7C8
:103F6000EDFB0120032100230222CDE90010810294
:103F7000C548FCF7E3FB0120032100230222CDE921
:103F800000104FF40C61C148FCF7D8FB012003215D
:103F900000230222CDE900104FF47E41BC48FCF71B
:103FA000CDFB0120032100230222CDE9001040F2C5
:103FB000F761B848FCF7C2FB0E220A21B248FCF7B1
:103FC0008DFB0E220621B148FCF788FB0E2207214B
:103FD000AE48FCF783FB0E220B21AC48FCF77EFBBE
:103FE0000E220921AA48FCF779FB0E220A21A848D3
:103FF000FCF774FB0E220B21A548FCF76FFB0E2289
:104000000C21A348FCF76AFB0E220D21A048FCF707
:1040100065FB0E2211469E48FCF760FB0E220F2125
:104020009B48FCF75BFB0E2200219A48FCF756FBED
:104030000E2201219748FCF751FB0E2202219548E0
:10404000FCF74CFB0E2204219248FCF747FB0E22A2
:1040500005219048FCF742FB0E2206218D48FCF713
:104060003DFB0E2207218B48FCF738FB0E2209216D
:104070008848FCF733FB0E220A218648FCF72EFB0A
:1040800044F24230854218D14FF4F0708249086002
:104090004FF4887048600120088148812820888179
:1040A0000820C881052008820820488202220421B5
:1040B0004FF49070FFF75AFD50E047F284008542BC
:1040C00018D14FF44870744908604FF4F07048609C
:1040D0000120088148812E2088811720C881D220A4
:1040E000088216204882012203214FF4C670FFF790
:1040F0003DFD33E047F21600854219D14FF4806050
:10410000654908604FF41670486014200881032048
:1041100048818C2088811420C881A02008820C202E
:104120004882012202214FF4B470FFF71FFD15E011
:1041300047F21800854207D14FF4A0605649086045
:104140004FF44870486009E048F21600854205D1F6
:104150004011514908604FF416704860002400BFB8
:1041600000BF00BF4D4804604B484089441E4A4888
:104170000089401E44EA004448481038046046481C
:1041800040894549C9890844441E43480089424939
:1041900089890844401E44EA004440480C380460C1
:1041A0003D4840893C49C98908443B49496808441D
:1041B000441E3948008938498989084436490988A4
:1041C0000844401E44EA0044344808380460324839
:1041D00040893149C98908442F49496808442E4912
:1041E000498A0844441E2C4800892B49898908447F
:1041F0002949098808442849098A0844401E44EA94
:1042000000442648001F046000202449143108603F
:10421000012000F0B3F922482249086002201E491B
:10422000C861002007210622CDE90002CDE9021075
:104230001C48FF2302220168002000F037F81648CE
:10424000808880B200901448008883B20022114612
:10425000104600F09FF810480088134908800E4867
:1042600080884880002000F083F901222021054841
:10427000FCF75CFA4FF0FF30FFF766FC7FBD0000F3
:10428000443802400004024000140240001802407A
:10429000001C02400020024070000220186801400B
:1042A000000000C034000220600002202DE9F0412F
:1042B00006ACF0CCE0B9DFF878C0CCF80010DFF83D
:1042C00070C0ACF1180CCCF800200CF1040CCCF848
:1042D000003047EA046CDFF85880A8F11008C8F8ED
:1042E00000C046EA052C08F10408C8F800C01DE02B
:1042F000DFF83CC00CF1800CCCF80010DFF830C0C7
:104300000CF1680CCCF800200CF1040CCCF8003057
:1043100047EA046CDFF8188008F17008C8F800C09C
:1043200046EA052C08F10408C8F800C0BDE8F08191
:10433000AC680140012910D130B9154A126842F029
:104340000102134B1A6019E0114A8032126842F0E0
:1043500001020F4B80331A6010E079B930B90C4A72
:10436000126822F001020A4B1A6007E0084A803204
:10437000126822F00102064B80331A60044A603A48
:10438000126842F00102024B603B1A607047000065
:10439000846801402DE9F04782460F4690461E464C
:1043A000DDF820900025BAF1000F43D1B819454936
:1043B0000968C1F30B410844040442480068C0F393
:1043C0000B403844401C20433E497C31086008EBD8
:1043D00009003C490968C1F30A010844040439484A
:1043E0000068C0F30A004044401C20433549803136
:1043F000086034488830006800F007050DB90424CF
:104400000AE0012D01D1032406E0052D01D0062D7F
:1044100001D1012400E0022406FB04F0C01C06FBCD
:1044200004F140EA01402749A4310860081DC0F8A2
:10443000009041E0B81923490968C1F30B410844D1
:10444000040420480068C0F30B403844401C20435B
:104450001C49FC31086008EB09001A490968C1F3DE
:104460000A010844040417480068C0F30A004044E5
:10447000401C20431449086013480830006800F0CD
:1044800007050DB904240AE0012D01D1032406E03B
:10449000052D01D0062D01D1012400E0022406FBE8
:1044A00004F0C01C06FB04F140EA01400649243137
:1044B0000860081DC0F8009001215046FFF73AFF40
:1044C000BDE8F0870C6801400C6901401CB5002470
:1044D0002448006840F4A0702249086001200021AF
:1044E0000B460A46CDE9001040211F48FCF726F98B
:1044F000012000210B460A46CDE9001084211B480B
:10450000FCF71CF9322001F063F840211648FCF753
:1045100005F9044604211548FCF700F944EA400077
:10452000C4B280211148FCF7F9F844EA8000C4B213
:1045300014B944F242301CBD012C02D147F2840070
:10454000F9E7022C02D147F21600F4E7032C02D15E
:1045500047F21800EFE7042C02D148F21600EAE710
:104560000020E8E7303802400018024000200240F6
:10457000014908757047000070000220012806D12B
:104580000749096841F00101054A116006E028B9B0
:104590000349096821F00101014A116070470000D8
:1045A000186801400146002002E04908421CD0B2D0
:1045B0000129FAD1704700000748006820F48030D4
:1045C0000549086004487030006820F00100024985
:1045D000703108607047000024ED00E005200549B7
:1045E000086004487038006840F480300149703930
:1045F0000860704794ED00E00EB500200090019037
:10460000032302464FF080610290580700F022F821
:1046100001200022CDE9002003230246C1040290BC
:10462000400700F017F801200022CDE90020032305
:10463000022241060290980700F00CF8002000903A
:10464000019003231A464FF080510290C80000F0F9
:1046500001F80EBD2DE9F04F05460C4616461F46E3
:10466000DDE90A9ADDF8248000239B4604F01F0050
:1046700000B914B90120BDE8F08F2046FFF792FF82
:10468000401E00F0FF0BFFF797FF0C480660001D6F
:10469000056000BF43EA076300BF43EA884343EA7B
:1046A000494343EA0A4300BF43EA4B0343F0010393
:1046B000001D0360FFF792FF0020DCE798ED00E0AB
:1046C0002DE9F0410746884614461D46284600F06D
:1046D00033F8C5F1040007FA00F60F20284100EA7C
:1046E0000800064306F00F06E21704EBD2625211EF
:1046F000920002F1E022D2F800212146E31704EBF8
:10470000D3635B11A4EB431C012303FA0CF31A439C
:104710002046E31704EBD3635B119B0003F1E02316
:10472000C3F800210348005D40EA0610014908551E
:10473000BDE8F08100E400E00146072323EA01021E
:104740001202054B18684FF6FF031840034B18433D
:104750001043014B186070470CED00E00000FA05B3
:104760004A0A52020243014B1A60704708ED00E00A
:1047700010B5002201210748FBF7D8FF4FF47A70EB
:1047800000F026FF4FF47A7000F022FF00F0FCFEEC
:1047900010BD00000004024070B50446042C03DA8A
:1047A000C4F10400C5B201E0201FC5B2032143F2E9
:1047B000122000F080FA2807010E45F2875000F021
:1047C0007AFA042C05DA092145F2885000F073FAD0
:1047D00004E0012145F2885000F06DFA132143F204
:1047E000122000F068FAA32143F2122000F063FACD
:1047F00070BD000070B50546032143F2122000F0A1
:104800005AFA1C2145F2813000F055FA5A2145F23E
:10481000823000F050FA062145F2833000F04BFA66
:1048200000240CE005EB4502104B03EB4202115D46
:1048300045F28432A01800F03EFA601CC4B2062C87
:10484000F0DB982145F28B3000F035FA012145F27A
:104850008A3000F030FA132143F2122000F02BFAD4
:10486000A32143F2122000F026FA70BDECB4000838
:1048700070B5044600252026072C1AD2DFE804F084
:1048800004080C191013160014200546064610E003
:104890001820054606460CE01C200546064608E0A2
:1048A0001025242605E01825282602E01C252C26A4
:1048B00000BF00BF032143F2122000F0FCF929469B
:1048C00045F2855000F0F7F9314645F2865000F088
:1048D000F2F9132143F2122000F0EDF9A32143F283
:1048E000122000F0E8F970BD70B500250024012108
:1048F00043F2230000F0DFF9082143F2220000F028
:10490000DAF900BF43F2230000F05BF90546601CB2
:1049100084B2B4F57A7F01DD022070BD052000F07D
:1049200057FE002DEED1012143F2230000F0C3F920
:10493000042143F2220000F0BEF9002400BF43F23C
:10494000230000F03EF90546601C84B2B4F57A7F7E
:1049500001DD0220E1E7052000F03AFE002DEED156
:104960000020DAE770B54FF400458F2620214FF480
:10497000405000F0A0F9002408E02748015D2846D7
:1049800000F099F9681C85B2601C84B240F6ED70A5
:104990008442F2D3002143F2220000F08CF900217E
:1049A00043F2230000F087F9002143F2240000F0D5
:1049B00082F9002143F2250000F07DF9002143F245
:1049C000260000F078F9002143F2270000F073F987
:1049D000002143F2280000F06EF97F2143F2290004
:1049E00000F069F900214FF4405000F064F9002410
:1049F00000BF43F2290000F0E4F80646052000F06D
:104A0000E7FD601C84B2B4F57A7F01DD012070BD42
:104A1000702EEED10020FAE7B2A400087CB5002485
:104A20002F48006840F001002D4908600120022154
:104A300000230246CDE90010C1032A48FBF77EFEA1
:104A400000F058F900224FF400412648FBF76EFEB3
:104A5000142000F0BDFD002000F0ACF8052000F0AF
:104A6000B7FD0122D1031F48FBF760FE142000F0C0
:104A7000AFFD00F031FA052000F0AAFD43F20A0074
:104A800000F09FF805464FF6FF7000EA052543F257
:104A90000B0000F096F8054345F24060854201D0D6
:104AA00001207CBD112143F2031000F004F98221A2
:104AB00043F2080000F0FFF80A2000F089FD00240E
:104AC0000AE0094A02EB84029178074A32F824008E
:104AD00000F0F1F8601C84B2CF2CF2D30020E0E7A4
:104AE000303802400000024076A1000870B505464B
:104AF000032143F2122000F0DEF800240AE0C5EBA7
:104B0000C5020B4B1A44115D04F5505000F0D3F868
:104B1000601CC4B2072CF2DB132143F2122000F018
:104B2000CAF8A32143F2122000F0C5F870BD0000BE
:104B3000C9B400082DE9F04104460D4616461F464B
:104B4000032143F2122000F0B6F8311243F60800B8
:104B500000F0B1F8F1B243F6090000F0ACF83912F8
:104B600043F60A0000F0A7F8F9B243F60B0000F094
:104B7000A2F8211243F6100000F09DF8E1B243F6CE
:104B8000110000F098F8291243F6120000F093F893
:104B9000E9B243F6130000F08EF8132143F212201D
:104BA00000F089F8A32143F2122000F084F80020DD
:104BB000BDE8F08110B504462146022000F0D3F88C
:104BC00010BD70B50446002500F008FA782000F00A
:104BD0003BFA201200F038FAE0B200F035FA00F0AB
:104BE00019FA00F0FBF9792000F02EFA00F0BEF976
:104BF000054600F09BF900F00DFA284670BD000054
:104C000010B5002400BF0AE00A4A02EB8402917842
:104C1000084A32F8240000F04EF8601C84B22D2CB3
:104C2000F2D30548006820B1062143F6210000F0C8
:104C300042F810BDC2A000087000022010B5044662
:104C4000212C0ADA652145F2083000F034F82146BB
:104C500045F2023000F02FF82CE0252145F2083013
:104C600000F029F808214FF4A64000F024F8302184
:104C700045F2013000F01FF8102145F2023000F03B
:104C80001AF8002145F2033000F015F8082145F22A
:104C9000093000F010F8302145F20A3000F00BF82E
:104CA000042145F20B3000F006F8062145F20C30E5
:104CB00000F001F810BD70B504460D46002600F066
:104CC0008DF9782000F0C0F900B10126201200F023
:104CD000BBF900B10126E0B200F0B6F900B101263F
:104CE000284600F0B1F900B1012600F093F93046F2
:104CF00070BD00001CB500241048006840F00200A0
:104D00000E490860012000210B460A46CDE900103B
:104D100001030B48FBF712FDFBF7AAFDFBF75EFE54
:104D20004020FBF725FEFBF7ADFE0446FBF780FEB7
:104D3000FF2000F02BF820461CBD00003038024058
:104D40000004024010B50024FBF748FE4120FBF7A9
:104D50000FFEFBF797FE0020FBF7D4FD0446FBF7A0
:104D600067FE204610BD70B504460E46FFF7EAFF09
:104D700005461EB90120A040854303E00120A04064
:104D80002843C5B2284600F001F870BD10B50446AE
:104D9000FBF724FE4020FBF7EBFDFBF773FE2046FC
:104DA000FBF7E6FDFBF76EFEFBF742FE0A2000F084
:104DB0000FFC10BD10B500231B4C236000BF00BFCB
:104DC00000BFBFF34F8F00BF00BF00BF231F186895
:104DD000C0F34E3100BFC0F3C90200BF43F6E07319
:104DE00003EA41134FF0404404EA827423430F4C1A
:104DF000236000BF00BF131EA2F10102EED10B1E03
:104E0000A1F10101E7D100BF00BF00BFBFF34F8F89
:104E100000BF00BF00BF00BF00BF00BFBFF36F8F68
:104E200000BF00BF00BF10BD84ED00E074EF00E0E4
:104E300010B50023234C236000BF00BF00BFBFF3A9
:104E40004F8F00BF00BF00BF231F1868C0F34E3153
:104E500000BFC0F3C90200BF43F6E07303EA411389
:104E60004FF0404404EA82742343174C236000BF90
:104E700000BF131EA2F10102EED10B1EA1F1010130
:104E8000E7D100BF00BF00BFBFF34F8F00BF00BF1F
:104E900000BF0C4B703B1B6843F48033094C703CE3
:104EA000236000BF00BF00BFBFF34F8F00BF00BF34
:104EB00000BF00BF00BF00BFBFF36F8F00BF00BFC8
:104EC00000BF10BD84ED00E060EF00E010B50520EC
:104ED00000F09AFB10BD00001CB51248006840F0BD
:104EE0000200104908600120022100230246CDE99A
:104EF000001018210C48FBF721FC0B481430006807
:104F000040F018000849143108600748006820F094
:104F1000C000054908600846006840F0400008608D
:104F20001CBD0000303802400004024010B5FFF7FD
:104F3000CDFF012208210C48FBF7F8FB01221021CC
:104F40000948FBF7F3FBFFF7C1FF002210210648D9
:104F5000FBF7ECFBFFF7BAFF002208210248FBF742
:104F6000E5FBFFF7B3FF10BD0004024070B500245D
:104F70001948006820F0C00017490860084600681A
:104F80000860082518E0FFF7A1FF01221021124850
:104F9000FBF7CCFB6006040E08210F48FBF7BEFBB5
:104FA00008B1601CC4B2FFF791FF002210210A482B
:104FB000FBF7BCFB681EC5B2002DE4DC06480068A8
:104FC00020F0C000044908600846006840F0400036
:104FD0000860204670BD00000004024010B50122A8
:104FE00008210B48FBF7A2FB012210210848FBF720
:104FF0009DFBFFF76BFF002208210548FBF796FB9E
:10500000FFF764FF002210210148FBF78FFB10BD62
:105010000004024010B5002208210A48FBF786FB75
:10502000FFF754FF012210210648FBF77FFBFFF733
:105030004DFF012208210348FBF778FBFFF746FFED
:1050400010BD00000004024070B5044600261FE0B9
:1050500004F0800028B1012208212448FBF766FBF8
:1050600004E0002208212148FBF760FB6006040EE3
:10507000FFF72CFF012210211C48FBF757FBFFF71D
:1050800025FF002210211948FBF750FB701CC6B207
:10509000082EDDDB1548006820F0C00013490860C9
:1050A000084600680860FFF711FF012210210F4831
:1050B000FBF73CFBFFF70AFF08210C48FBF72EFB30
:1050C00008B1012500E00025002210210748FBF768
:1050D0002DFB0648006820F0C0000449086008461F
:1050E000006840F040000860284670BD000402409F
:1050F0007CB5002400250026A948006840F0010086
:10510000A7490860A6480838006840F07C00A44918
:10511000083908600120032100230222CDE9001094
:105120000D21A048FBF70AFB0120032100230222E6
:10513000CDE900104CF203719B48FBF7FFFA012008
:10514000032100230222CDE900104FF68371974816
:10515000FBF7F4FA0120032100230222CDE900101D
:105160004FF63F019248FBF7E9FA012003210023A3
:105170000222CDE9001048F237118E48FBF7DEFA23
:105180000C2200218748FBF7A9FA0C22022185484E
:10519000FBF7A4FA0C2203218248FBF79FFA0C22AA
:1051A00000218148FBF79AFA0C2201217E48FBF787
:1051B00095FA0C2208217C48FBF790FA0C22092171
:1051C0007948FBF78BFA0C220A217748FBF786FA1D
:1051D0000C220E217448FBF781FA0C220F21724831
:1051E000FBF77CFA0C2200217048FBF777FA0C22BF
:1051F00001216E48FBF772FA0C2207216B48FBF77E
:105200006DFA0C2208216948FBF768FA0C22092183
:105210006648FBF763FA0C220A216448FBF75EFA42
:105220000C220B216148FBF759FA0C2211465F480A
:10523000FBF754FA0C220D215C48FBF74FFA0C22C5
:105240000E215A48FBF74AFA0C220F215748FBF768
:1052500045FA0C2200215648FBF740FA0C220121A6
:105260005348FBF73BFA0C2202215148FBF736FA70
:105270000C2203214E48FBF731FA0C2204214C4842
:10528000FBF72CFA0C2205214948FBF727FA0C22E0
:105290000B214748FBF722FA0C2211464448FBF742
:1052A0001DFA0C220D214248FBF718FA0C220E21A0
:1052B0003F48FBF713FA0C220F213D48FBF70EFA8B
:1052C0000C2200213B48FBF709FA0C220121394846
:1052D000FBF704FA0C2202213648FBF7FFF90C22F7
:1052E00004213448FBF7FAF90C2205213148FBF779
:1052F000F5F90C2208212F48FBF7F0F90C220F21B9
:105300002C48FBF7EBF944F0010444F0080444F0A6
:10531000100444F0400444F4C07400BF44F400643A
:1053200044F4805400BF2448046045F0010545F072
:10533000700545F4C06545F4C04545F4803545F435
:10534000801545F08075C005C0F8485100231A4605
:105350000121184600F032F84FF4FA7000F054F9C9
:1053600000231A460221184600F028F800230822DC
:105370000321184600F022F846F0030600BF46F06D
:10538000300600BF46F40076334600220421104662
:1053900000F014F84FF4CE600749143108607CBD6A
:1053A0003838024000080240000C02400010024061
:1053B0000014024000180240400100A0F0B504466D
:1053C0000D46002600212943C4F104070120B840FE
:1053D000014341EA421141EA43210948016005E0E5
:1053E000761CB6F5001F01D30120F0BD044808303B
:1053F000006800F020000028F2D100BFF5E70000AF
:10540000500100A02DE9F04104460D4616461F4606
:105410001548006840F00100134908600020124957
:105420000831086010480068104908400E490860BB
:105430000F48091D0860081F006820F48020091F1C
:105440000860002008490C310860FAF791FF3B46DC
:1054500032462946204600F00DF800214FF000604A
:10546000FFF77EF9BDE8F08100380240FFFFF6FE4D
:1054700010300024F0B504460D46002100203F4EB8
:10548000366846F480363D4F3E6001E04E1CB1B2B6
:105490003A4E366806F400361EB941F6FF76B14240
:1054A000F4DB41F6FF76B14201D1012065E0334ED5
:1054B0004036366846F08056304F40373E60304EBA
:1054C000366846F440462E4F3E603E46366846F407
:1054D00080363E603E46366846F400363E60274ED3
:1054E0000836366846F41446244F08373E60234E8B
:1054F000366826F08076214F3E6045EA8416012703
:10550000C7EB520746EA074646EA036646F48006BA
:105510001A4F3F1D3E603E1F366846F080763F1FA3
:105520003E6000BF154E366806F00076002EF9D0BA
:10553000144E366846F48076124F3E603E4636681A
:1055400046F400763E603E46366846F007063E600A
:105550000A4E0836366826F00306084F08373E60C4
:105560003E46366846F002063E6000BF034E0836EF
:10557000366806F00C06082EF8D1F0BD003802405F
:1055800000700040003C024001480249086070473A
:105590000400FA050CED00E04FF0E021096921F06C
:1055A00004014FF0E0221161C21700EB5272C2F306
:1055B000C702054B1A704FF47A714143C1F3CF0112
:1055C000024A118070470000280002202A000220B1
:1055D00070B504464FF4077094FBF0F0C6B24FF478
:1055E000077094FBF0F100FB114085B205E04FF429
:1055F000077000F027F8701EC6B2002EF7D115B163
:10560000284600F01FF870BD01460D4A12784A4343
:105610004FF0E0235A6100229A6101221A6100BF13
:105620004FF0E022106900F001021AB100F480325C
:10563000002AF5D000224FF0E0231A619A617047EA
:105640002800022001460D4A12884A434FF0E02309
:105650005A6100229A6101221A6100BF4FF0E022D4
:10566000106900F001021AB100F48032002AF5D06E
:1056700000224FF0E0231A619A6170472A0002204D
:1056800010B500F0D1F800F0E7F8002010BD7FB5AC
:1056900086B000250024002600BF1CE0BDF81E00D7
:1056A0006843C6B2002410E0069800EB860000EBC9
:1056B000840090ED000ABCEEC00A10EE100A3030F3
:1056C000311903AA5054601CC4B2BDF81E00A04298
:1056D000EADC681CC5B2BDF81C00A842DEDC03A8E9
:1056E00010210B46C822CDE9001082210020FEF7D0
:1056F000ADF901200AB070BD08B5002600240025D0
:10570000FFF77EFAFFF72EF90020FFF7EFF90320ED
:10571000FFF770F80420FFF73FF80320FFF7A8F821
:105720002120FFF78BFAFFF7DFF8FAF7D7FE2248C0
:105730002249086001200346442221490090A1F536
:105740000870FAF751FE88231A4600210420FFF75B
:10575000F1F9FAF781FF2DE00020FBF7FFF905468C
:10576000E6B1012211461748FAF7E0FF00240DE0E8
:1057700004EB0410144901EB001023468822214653
:1057800000900020FEF73EFA601C84B2882CEFDB0C
:105790000026012202210B48FAF7C8FF3DB1012D76
:1057A00005D10126002202210648FAF7BFFF0A2090
:1057B000FFF70EFFD0E70000CD570008440002209D
:1057C000B002022000040240D004022010B5114AA9
:1057D000126802F400220AB10F4900E00F490020CC
:1057E0000CE031F810200E4B1B8803EB03130D4C1B
:1057F00004EB031323F81020421C90B28828F0DB3E
:10580000074A1288872A04DA054A1288521C044B78
:105810001A8010BD2864024090000220B0020220CD
:105820004C000220D004022010B5092302221921C5
:105830004FF4D870FFF7E6FDD820FFF7ADFEFEF776
:1058400063F9FEF7D9FEFFF753FCFBF79DFBFBF76F
:105850004DF9012010BD00001CB516480FC8FFF718
:1058600016FF15E014A010210B46F022CDE9001020
:1058700082211E20FEF7EAF8C820FFF7A9FE4FF6A6
:10588000FF70AA23EF22822100901E20FBF744FB29
:10589000FFF7C4F80028E5D10BA010210B46C82261
:1058A000CDE9001011461E20FEF7D0F8FFF724FFC7
:1058B00000BFFEE7180002204F5635363430204531
:1058C00052524F52000000004F5635363430204FB0
:1058D0004B0000004FF04070E1EE100A70470000EE
:1058E00000000000000000000000000000003F4039
:1058F00000000000000000003000400030004000C8
:10590000000009000BC03D000BC03D00090018C09D
:1059100024407FE0224031800000180024C01B009A
:105920000D803240018003801C4027401C800740CE
:1059300000401000600000000000000000000000B7
:10594000000000001F802040402000004020204038
:105950001F8000000000090006001F8006000900EB
:105960000000040004003F80040004000000001058
:1059700000600000000000000000040004000400BB
:1059800004000400000000000040000000000000CF
:105990000000002001C006003800400000001F8009
:1059A0002040204020401F800000000010403FC0E9
:1059B00000400000000018C0214022402440184050
:1059C000000010802040244024401B800000020082
:1059D0000D0011003FC0014000003C8024402440E5
:1059E0002440238000001F80244024403440038052
:1059F00000003000200027C03800200000001B807D
:105A00002440244024401B8000001C0022C022406F
:105A100022401F800000000000000840000000003D
:105A20000000000000000460000000000000000012
:105A300004000A001100208040400900090009000C
:105A400009000900000000004040208011000A0009
:105A500004001800200023402400180000001F80CC
:105A60002040274029401F400000004007C0390067
:105A70000F0001C0004020403FC0244024401B8054
:105A800000001F8020402040204030800000204047
:105A90003FC0204020401F80000020403FC02440E5
:105AA0002E4030C0000020403FC024402E00300077
:105AB00000000F0010802040224033800200204070
:105AC0003FC0040004003FC02040204020403FC0B1
:105AD0002040204000000060202020203FC0200007
