:020000040800F2
:10000000780E0020450100083B1500088114000807
:100010003915000855090008991B00080000000068
:100020000000000000000000000000007B19000834
:100030005709000800000000791900087D19000820
:100040005F0100085F0100085F0100085F01000810
:100050005F0100085F0100085F0100085F01000800
:100060005F0100085F0100085F0100085F010008F0
:100070005F0100085F0100085F0100085F010008E0
:100080005F0100085F0100085F0100085F010008D0
:100090005F0100085F0100085F0100085F010008C0
:1000A0005F0100085F0100085F0100085F010008B0
:1000B0005F010008391A00085F0100085F010008AD
:1000C0005F0100085F0100085F0100085F01000890
:1000D0005F0100085F0100085F010008391B00088C
:1000E0005F0100085F0100085F0100085F01000870
:1000F0005F0100085F0100085F0100085F01000860
:100100005F0100085F0100084D1A00085F01000848
:100110005F0100085F0100085F010008C91A0008BC
:100120005F0100085F0100085F0100085F0100082F
:10013000DFF80CD000F0D6FA00480047ED280008A0
:10014000780E00200648804706480047FEE7FEE795
:10015000FEE7FEE7FEE7FEE7FEE7FEE7FEE7FEE777
:10016000F119000831010008202A04DB203A21FAA5
:1001700002F00021704721FA02F3D040C2F12002C0
:100180009140084319467047D2B201E000F8012BB4
:10019000491EFBD270470022F6E710B513460A4607
:1001A00004461946FFF7F0FF204610BD30B505465E
:1001B0002A460B4612F8010B13F8014B08B1A04276
:1001C000F8D01CB1002802D06D1CF1E7284630BDE4
:1001D000421C10F8011B0029FBD1801A70472DE941
:1001E000FE4F81EA030404F0004421F00041009432
:1001F0004FF0000B23F0004350EA01045ED052EAB6
:1002000003045BD0C3F30A54C1F30A552C44A4F28F
:10021000F3340194A0FB0254C1F3130141F48011A3
:10022000C3F3130343F4801301FB024400FB034EAA
:10023000840A970A44EA815447EA8357A4FB076873
:1002400002958D0A05FB07854FEA932C04FB0C549D
:100250002705029D4FEA065847EA1637B5EB080511
:100260006EEB070C870E920E47EA811742EA831263
:10027000A7FB0201B6EB0B0164EB00042B0D43EA74
:100280000C335E1844EB1C50DA465146E7FB020182
:10029000C5F313044FEA0B3343EA14534FEA043215
:1002A000019C43EA0603A4F10C040294009CCDE9EE
:1002B00000B400F082F803B0BDE8F08F00200146E2
:1002C000F9E70EB540F2334102910021CDE900116A
:1002D0000A460B4600F071F803B000BDC1F30A52A4
:1002E00010B5C1F3130140F2FF3341F480119A427B
:1002F00001DA002010BD40F233439A42A2F23342A9
:1003000003DC5242FFF730FF10BD904010BD30B506
:100310000B46014600202022012409E021FA02F5C3
:100320009D4205D303FA02F5491B04FA02F528445D
:10033000151EA2F10102F1DC30BD2DE9F05F05468A
:10034000002092469B4688460646814640241BE094
:100350002846414647462246FFF706FF53465A467F
:10036000C01A914110D311461846224600F0CCF92C
:100370002D1A67EB01084F4622460120002100F0AC
:10038000C3F917EB00094E41201EA4F10104DFDC84
:10039000484631462A464346BDE8F09F10B5141E34
:1003A00073F1000408DA401C41F1000192185B412E
:1003B0001A4301D120F0010010BD2DE9F04D924605
:1003C0009B4611B1B1FA81F202E0B0FA80F220321C
:1003D000904600F099F904460F4640EA0A0041EAC7
:1003E0000B0153465A46084313D0114653EA010005
:1003F00019D0C8F140025046FFF7B6FE05460E463A
:1004000050465946424600F07FF9084305D0012086
:1004100004E020463946BDE8F08D0020054346EA59
:10042000E0762C4337430A986305E40AA0EB080002
:100430000022FD0A44EA47540A3002D50020014652
:10044000E9E7010510196941DDE90845001969412D
:10045000BDE8F04DA2E72DE9FE4F804681EA03009A
:10046000C00F0C46009021F0004123F00045B8EB8E
:100470000200A94105D24046214690461C460B4643
:10048000024623F00040104347D0270DC7F30A006F
:10049000C3F30A510290401A019040286BDAC3F36B
:1004A000130040F4801B0098924620B10023D2EB49
:1004B000030A63EB0B0B01985946C0F1400250460A
:1004C00000F022F906460D4650465946019A00F0C2
:1004D0002AF910EB08006141002487EA115284EAEE
:1004E000E7731A4340D0009A62B3019A012A4FEA97
:1004F000075215DC001B61EB02014FF0004202EADB
:100500000752CDE90042001C41F5801132462B46CE
:10051000FFF753FF03B0BDE8F08F40462146F9E7EF
:10052000001B61EB0201001C41F5801300185B41C8
:100530002018A2F5001747EB030140EAD570B61961
:100540006D4111E06D084FEA360645EAC0754FEA85
:100550000752001B61EB0201001C41F580114908A4
:100560004FEA30000019514132462B4603B0BDE836
:10057000F04FFFF713BF0098012240000023D0EB9B
:10058000020263EBE073009821464FEAE074B8EB97
:10059000000061EB0401E9E783F000435BE781F0D1
:1005A000004158E72DE9F04D81EA030404F0004BC7
:1005B00021F0004514464FF0000A23F0004150EAB4
:1005C000050220D054EA01021DD0C5F30A570246A5
:1005D000C5F31303C1F31300C1F30A5640F48015A9
:1005E00043F48013A7EB0608101BD64608F2FD382B
:1005F00073EB050002D308F1010801E092185B419A
:10060000B8F1000F03DA00200146BDE8F08D0020AC
:100610004FF48011064684460EE0171B73EB050766
:1006200005D3121B63EB050306434CEA010C490892
:100630004FEA300092185B4150EA0107EDD152EACF
:10064000030012D082EA040083EA0501084305D0C2
:10065000101BAB4106D20122002306E000224FF01E
:10066000004302E06FF0010253101AEB06004CEB5E
:10067000085110EB0A0041EB0B01BDE8F04DFFF70C
:100680008DBEC1F30A52C1F3130140F2FF3341F4AE
:1006900080119A4202DA00200146704740F233434B
:1006A0009A42A2F2334202DC5242FFF75DBD00F0F3
:1006B0002BB8000030B5041E71F1000404DB4FF0CC
:1006C0000044404264EB0101141E73F1000405DB99
:1006D0001C464FF00043524263EB0403994208BFAB
:1006E000904230BD064C074D06E0E06840F0010343
:1006F00094E8070098471034AC42F6D3FFF71CFD8E
:100700009C420008BC420008202A04DB203A00FA80
:1007100002F1002070479140C2F1200320FA03F358
:10072000194390407047202A06DBCB17203A41FA44
:1007300002F043EAE07306E041FA02F3D040C2F16E
:10074000200291400843194670470000164810B532
:10075000816986B041F0040181618069134C00F029
:1007600004000490BE20009001200190032003901B
:100770006946204600F0FCF800221421204600F0D3
:10078000EBF94FF40454204600F04EF842F23800E2
:1007900000F04AF84FF4404000F046F8204600F0E0
:1007A00043F806B010BD00000010024000080140F0
:1007B00007490122C1F88421C1F88C21C1F89C218C
:1007C000C1F89C210022C1F89C2100F02DB8000046
:1007D0000000214210B504460846FFF772FD104A9A
:1007E000104BFFF7FCFCFFF779FD810B7CB120F487
:1007F000804021F4804140F4004041F4004400BFB7
:1008000000F012F82046BDE8104000F00DB820F4CA
:10081000004021F4004140F4804041F48044EFE77F
:10082000F8BA40D813A20C4030B50E49002301227B
:10083000C1F88C211C46C1F88431050402D5C1F8E9
:10084000942101E0C1F89441C1F88C414000C1F805
:100850008C215B1CDBB2102BEFD3C1F89421C1F8C3
:10086000842130BD0000214270B5002601253446A8
:1008700026A001F027FE80B310F8021CAB1E7129E0
:1008800006D0732902D0742925D103E0012102E0AA
:10089000022100E0032110F8012C302A03D0312A74
:1008A00019D141F0040110F8042C333AD2B2865C1D
:1008B000682E04D06B2E05D06D2E0CD105E041F0D2
:1008C000080604E041F0100601E041F01806921E0F
:1008D000D1B203290ED9184670BD15E042185278DE
:1008E000303A02FB054214B205EB85025200491E64
:1008F00015B2C9B20029F1D1821E05A1054801F047
:100900004DF946EA441006B23046E5E7663D000080
:10091000257300001200002010B502F0BDF8002879
:100920000FD001F0C1FE00F019FE012105A000F07A
:10093000D9FF0221064800F0D5FFBDE8104000F0C5
:1009400003BF10BD787877734C2074697000000085
:1009500012000020FEE7704731B500F003F90446AD
:1009600000F000F90099001B8842F9D338BD00005F
:100970002DE9F84FDFF8B8A100220AF1040B144664
:1009800001274FF00F090BF1040E00BF0B6807FAA7
:1009900004F52B40AB4274D1DFF898C14E68A6EB4A
:1009A0000C0866452BD00DDC032E34D005DC36B3A5
:1009B000012E19D0022E2FD11BE0112E16D0122E8F
:1009C0002AD119E0B8F5881F19D006DCB8F5803FA8
:1009D00015D0B8F5801F1FD111E0B8F5001F0ED05B
:1009E000B8F5041F18D10AE0CA6815E0CA68121DDC
:1009F00012E0CA6808320FE0CA680C320CE08A685C
:100A00002AB1012A4FF0080203D0456104E0042214
:100A100002E0056100E00022FF2B01D8064601E05C
:100A200000F104064FEA840501D9A5F12005D6F8A6
:100A300000C009FA05F82CEA080C02FA05F54CEAA0
:100A4000050CC6F800C04D68ED006AD53A4DAE6998
:100A500046F00106AE61AD6924F0030605F001051C
:100A60000095364D06EB050CDCF80850A6074FEA5A
:100A7000167809FA08F6B543314EB04202D1002685
:100A80001AE04EE02F4EB04201D1012614E02E4E66
:100A9000B04201D102260FE02C4EB04201D1032614
:100AA0000AE02B4EB04201D1042605E0294EB042A7
:100AB00001D1052600E0062606FA08F62E43CCF8FA
:100AC00008604D68DAF80060ED03554601D51E4315
:100AD00000E09E432E604D68AD0305D5DBF8006055
:100AE0001E43CBF8006004E0DBF800509D43CBF8D8
:100AF00000504D68DEF80060ED02754601D51E43DA
:100B000000E09E432E604D68AD0205D5084D0C35C2
:100B10002E681E432E6004E0054E0C3635689D435A
:100B20003560641C102CFFF431AFBDE8F88F000075
:100B300000040140000011100010024000000140BC
:100B400000080140000C0140001001400014014069
:100B500000180140001C01400AB1016170470904FE
:100B6000FBE700000148006870470000000000201B
:100B700002480168491C0160704700000000002025
:100B8000074810B5016841F010010160032000F032
:100B900073F8002000F006F800F016F8002010BDF1
:100BA0000020024010B5044600F03CF94FF47A7181
:100BB000B0FBF1F000F04CFC00222146501E00F08A
:100BC0003BF8002010BD00001A4808B5816941F0CB
:100BD00001018161806900F001000090032000F0B4
:100BE0004BF8002211466FF00B0000F025F80022B0
:100BF00011466FF00A0000F01FF8002211466FF056
:100C0000090000F019F800221146501F00F014F8F6
:100C100000221146101F00F00FF800221146901E0E
:100C200000F00AF80022BDE808401146501E00F00E
:100C300003B8000000100240F0B40E4B1B680C46D5
:100C4000C3F30223C3F10705042D00D90425191DA0
:100C5000072901D2002300E0DB1E012606FA05F178
:100C6000491E214099409E40761E16403143F0BCFB
:100C700000F064BC0CED00E0064900F007020868D3
:100C80004FF6FF03184040EA0220034A1043086071
:100C9000704700000CED00E00000FA052DE9F04778
:100CA000DFF8708105460E46D8F8000000F0070016
:100CB000B0420CD2D8F8001021F007013143C8F837
:100CC0000010D8F8000000F00700B04277D1287873
:100CD000514C800705D56068A96820F0F0000843F2
:100CE00060602878C00759D06968012001290DD0BB
:100CF000022929D05FF0020393FAA3F2B2FA82F23A
:100D000042F02002520904D0226803E04FF400337D
:100D1000F2E7626A93FAA3F3B3FA83F303F01F03D3
:100D2000984002424BD0606820F0030008436060A6
:100D3000FFF718FF6968074641F2883001290DD096
:100D40000229814617D025E04FF00073D4E700BF99
:100D5000FFF708FFC11B494501D918E081466068CB
:100D6000C0F381000128F3D118E000BFFFF7FAFEBD
:100D7000C11B49450BD86068C0F381000228F5D13A
:100D80000CE000BFFFF7EEFEC11B494502D903206E
:100D9000BDE8F087606810F00C0FF3D1D8F80010B0
:100DA000404601F00701B1420BD9016821F007016B
:100DB00031430160006800F00700B04201D001201B
:100DC000E6E72878400705D56068E96820F4E06028
:100DD000084360602878000706D56068296920F418
:100DE000605040EAC100606000F022F86168F022C3
:100DF00092FAA2F201F0F001B2FA82F2D140074A6F
:100E0000515CC840064908600020FFF7CBFE002077
:100E1000BEE700000020024000100240AC2A00089B
:100E20000400002001480068704700000400002012
:100E300010B519A385B00FCB8DE80F001AA01B4B7E
:100E4000006804905A681A4802F00C0104291DD069
:100E500008291BD14FF4701494FAA4F402F4701111
:100E6000B4FA84F4E140D2031DF8011010D55A6899
:100E70004FF4003393FAA3F302F40032B3FA83F38E
:100E8000DA4004AB9A5CB0FBF2F0484305B010BD09
:100E900008484843FAE7000002030405060708096A
:100EA0000A0B0C0D0E0F1010010200000010024082
:100EB00000127A0000093D002DE9F84F0446007841
:100EC000F74DC0074FF0010625D068687704C0F3DE
:100ED0008100012807D06868C0F3810002281BD177
:100EE0006868C00318D597FAA7F0B0FA80F040F010
:100EF0002000400901D0286800E0686A97FAA7F14D
:100F0000B1FA81F101F01F0106FA01F108425ED049
:100F1000606800287CD05AE06068B0F5803F0BD054
:100F200010B1B0F5A02F11D0286820F480302860CF
:100F3000286820F4802002E0286840F4803028608F
:100F4000606828B3FFF70EFE80460BE0286840F487
:100F500080202860F0E700BFFFF704FEA0EB080048
:100F6000642871D897FAA7F0B0FA80F040F020001A
:100F7000400901D0286800E0686A97FAA7F1B1FA41
:100F800081F101F01F0106FA01F10842E4D01EE0F0
:100F9000FFF7E8FD804605E0FFF7E4FDA0EB080061
:100FA0006428DED897FAA7F0B0FA80F040F020006D
:100FB000400901D0286800E0686A97FAA7F1B1FA01
:100FC00081F101F01F0106FA01F10842E4D1207815
:100FD000DFF8D08280074FF000094FF002075BD5A1
:100FE00068684FF0F80B10F00C0F07D06868C0F37A
:100FF000810002281CD16868C00319D497FAA7F0B1
:10100000B0FA80F040F02000400902D0286801E0EA
:101010008BE0686A97FAA7F1B1FA81F101F01F013C
:1010200006FA01F108422CD0206901287DD128E080
:10103000206990B396FAA6F0B0FA80F048F82060E4
:10104000FFF790FD824607E011E100BFFFF78AFD40
:10105000A0EB0A00022884D897FAA7F0B0FA80F033
:1010600040F02000400901D0286800E0686A97FA43
:10107000A7F1B1FA81F101F01F0106FA01F108426E
:10108000E4D028689BFAABF26169B2FA82F220F0F0
:10109000F80091400843286025E0FFE796FAA6F1A2
:1010A000B1FA81F148F82190FFF75CFD824605E036
:1010B000FFF758FDA0EB0A000228CCD897FAA7F05A
:1010C000B0FA80F040F02000400901D0286800E02C
:1010D000686A97FAA7F1B1FA81F101F01F0106FAE7
:1010E00001F10842E4D1207800076ED5A069B8B3B9
:1010F00096FAA6F0B0FA80F008EB8000C0F88064A1
:10110000FFF730FD824605E0FFF72CFDA0EB0A005B
:101110000228A0D897FAA7F0B0FA80F040F060005B
:10112000B6EB501F02D128680CE062E197FAA7F0F5
:10113000B0FA80F040F06000B7EB501F01D1286A90
:1011400000E0686A97FAA7F1B1FA81F101F01F0196
:1011500006FA01F21042D7D00120FFF7FDFB34E080
:10116000FFE796FAA6F1B1FA81F108EB8101C1F827
:101170008094FFF7F7FC824606E000BFFFF7F2FC21
:10118000A0EB0A00022872D897FAA7F0B0FA80F014
:1011900040F06000B6EB501F01D128680BE097FAD1
:1011A000A7F0B0FA80F040F06000B7EB501F01D11B
:1011B000286A00E0686A97FAA7F1B1FA81F101F0B4
:1011C0001F0106FA01F21042D8D12078400765D5F8
:1011D000E86940F08050E861E869DFF8CCB000F0E1
:1011E00080500090DBF8001041F48071CBF80010C3
:1011F000FFF7B8FC824605E0FFF7B4FCA0EB0A005D
:10120000642834D8DBF80000C005F5D5E068012873
:101210000AD008B1052813D0286A20F001002862FE
:10122000286A20F0040002E0286A40F001002862E9
:10123000E06841F2883B90B3FFF794FC82460BE0F4
:10124000286A40F004002862EEE700BFFFF78AFC3E
:10125000A0EB0A0159450AD897FAA7F0B0FA80F036
:1012600040F04000B6EB501F02D128680CE0A3E02C
:1012700097FAA7F0B0FA80F040F04000B7EB501FAB
:1012800001D1286A00E0686A97FAA7F1B1FA81F102
:1012900001F01F0206FA02F10842D7D031E005E062
:1012A000001002400000424200700040FFF75AFC6C
:1012B000824605E0FFF756FCA0EB0A0159457BD8B2
:1012C00097FAA7F0B0FA80F040F04000B6EB501F5C
:1012D00001D128680BE097FAA7F0B0FA80F040F04F
:1012E0004000B7EB501F01D1286A00E0686A97FA06
:1012F000A7F1B1FA81F101F01F0206FA02F10842EA
:10130000D8D1E06980B36968C1F38101022970D046
:101310004FF080714F000228484609D091FAA1F1A0
:10132000B1FA81F148F82100FFF71CFC044669E09E
:101330008A4691FAA1F1B1FA81F1C14648F821003B
:10134000FFF710FC804605E0FFF70CFCA0EB08005F
:10135000022854D897FAA7F0B0FA80F040F02000A5
:10136000400902D0286801E061E0686A97FAA7F1B5
:10137000B1FA81F101F01F0106FA01F10842E3D14F
:10138000206AB0F5803F05D16868A16820F400307C
:1013900008436860D4E908010843696821F47411BE
:1013A000084368609AFAAAF0B0FA80F049F8206021
:1013B000FFF7D8FB044606E021E000BFFFF7D2FBB1
:1013C000001B02281BD897FAA7F0B0FA80F040F073
:1013D0002000400901D0286800E0686A97FAA7F168
:1013E000B1FA81F101F01F0106FA01F10842E5D0DE
:1013F0001DE01EE0FFF7B6FB001B022802D9032008
:10140000BDE8F88F97FAA7F0B0FA80F040F020001E
:10141000400901D0286800E0686A97FAA7F1B1FA9C
:1014200081F101F01F0106FA01F10842E2D100202A
:10143000E6E70120E4E74FF0E0210428086903D043
:1014400020F004000861704740F00400FAE770479C
:1014500010B5401EB0F1807F01D3012010BD4FF0C8
:10146000E02460610F21601700F068F80020A0619F
:1014700007202061002010BD10B5FFF7E8FF10BD68
:10148000FEE700000E4810B5816986B041F01001FA
:10149000816180690B4C00F0100004900122C02192
:1014A0002046FFF759FBC020009001200190032047
:1014B000039069462046FFF75BFA06B010BD0000B6
:1014C0000010024000100140F0B5054614460F46DA
:1014D0001E46184600F01EF8C6F1040085400F2095
:1014E000F040384028436109890001F1E021D1F83A
:1014F000002104F01F050123AB401A43C1F800216D
:1015000004F1E02494F8001441EA001084F8000487
:10151000F0BD0000072181430A02054908684FF623
:10152000FF031840034B1843104308607047000046
:101530000CED00E00000FA05FEE770470907090E10
:10154000002806DA00F00F0000F1E02080F8141DFA
:10155000704700F1E02080F80014704710B40021BB
:10156000084B0A465FF0000003EBC004401CC0B209
:1015700062548028F8D3491CC9B20829F2D310BCA0
:1015800000F0E2B82800002010B57F2816D83F29C7
:1015900014D80723A3EBD10301F00701C1F107041D
:1015A0000121A140064CDBB204EBC000002AC25C62
:1015B000C9B201D00A4300E08A43C25410BD000002
:1015C00028000020F0B5194885B0816941F040013C
:1015D0008161816901F040010491816941F0080154
:1015E00081618069124E00F008004FF42A54049083
:1015F000002221463046FFF7AFFA0E4F00220221AB
:101600003846FFF7A9FA00940124032569463046BD
:1016100003950194FFF7ACF90220CDE90004694677
:1016200003953846FFF7A4F905B0F0BD001002405D
:1016300000180140000C014070B5FFF7C3FF404C9B
:101640000125C4F8AC51C4F8B4513E48C0F88451E7
:10165000C4F8A4510A2004F5D27400F0CDFF002094
:1016600020600A2000F0C8FF25600021AE2000F0B5
:1016700015F90021D52000F011F90021502000F0CB
:101680000DF90021A82000F009F900213F2000F009
:1016900005F90021D32000F001F90021084600F0EF
:1016A000FDF80021402000F0F9F800218D2000F025
:1016B000F5F80021142000F0F1F80021202000F0BE
:1016C000EDF80021022000F0E9F80021A12000F04F
:1016D000E5F80021C02000F0E1F80021DA2000F058
:1016E000DDF80021122000F0D9F80021812000F05F
:1016F000D5F80021EF2000F0D1F80021D92000F02A
:10170000CDF80021F12000F0C9F80021DB2000F025
:10171000C5F80021302000F0C1F80021A42000F01D
:10172000BDF80021A62000F0B9F80021AF2000F09C
:10173000B5F8FFF713FFBDE8704000F0E7B8000010
:10174000000023420080214270B5114E002400BFEA
:1017500004F1B000C0B2002100F0A0F8002108465A
:1017600000F09CF80021102000F098F85FF00005D0
:1017700006EBC5000121005D00F090F86D1CEDB294
:10178000802DF5D3641CE4B2082CE1D370BD0000B9
:10179000280000202DE9FF4F1D460C4689465807BA
:1017A00000D0012000EBD50069084843203A00F042
:1017B000FF0A02F0FF0B002639E00C2D0FD0102D90
:1017C00011D0182D35D11C490BEBCB0001EB80005B
:1017D0004FF00008875D380609D50D9A0AE00BEB3B
:1017E0004B001649F2E7164901EB0B10F0E70D9894
:1017F00090B1002221460098FFF7C6FE7806641CCF
:10180000070EE4B2A4EB0900A84207D100984C46A9
:10181000401CC0B2009008E00122EBE708F1010093
:1018200000F0FF08B8F1080FD5D3761CF6B2564584
:10183000C3D3BDE8FF8F000020350008BC2A000894
:10184000302F00082DE9F84704461F468020164631
:101850000D46A0EB5709C3F140084FF0010A16E00E
:10186000A14502D20024E819C5B2A84503DA002434
:101870002546FFF773FECDF800A032783B46294697
:101880002046FFF787FF04EB5700C4B2761C307880
:1018900020385E28E4D9BDE8F887000070B50F4B0A
:1018A000C3F89C110E4D0024C5F884412146012245
:1018B000C3F8B441060602D5C3F8AC2101E0C3F871
:1018C000AC41C3F8B4214006491C000EC9B2082936
:1018D000EED3C5F88421C3F89C2170BD00002342DB
:1018E0000080214210B4002301E05B1CDBB2C25C2B
:1018F000002AFAD10907C3F11002090E9206140E4C
:101900000246204610BC1023FFF79CBF10B50021F3
:101910000CA0FFF7E7FF01210EA0FFF7E3FF022174
:1019200010A0FFF7DFFF032110A0FFF7DBFFFFF799
:101930000BFF40F2DC5000F05FFEBDE81040FFF707
:101940000DBE00004F4C454420696E697473756389
:101950006373650048656C6C6F2057656C636F6DD1
:101960006521200065646974696F6E0058585720BE
:10197000312E3030000000007047704710B5FFF77F
:10198000F7F8BDE81040FFF777BD30B58FB0012004
:10199000009000040024CDE901040225CDE90750A0
:1019A0004FF4E01009906846FFF786FA00B1FEE7B1
:1019B0000F20CDE90A054FF48060CDE90C400221EB
:1019C0000AA80E94FFF76AF900B1FEE7FFF72AFABA
:1019D0004FF47A71B0FBF1F0FFF73AFD0420FFF706
:1019E0002AFD00221146501EFFF726F90FB030BD28
:1019F0000D48016841F00101016041680B4A114046
:101A0000416001680A4A11400160016821F48021A7
:101A10000160416821F4FE0141604FF41F018160C3
:101A20000449C00308607047001002400000FFF83E
:101A3000FFFFF6FE08ED00E003480168016821F0B1
:101A400001010160704700001004004030B51B4CDC
:101A500020684FF0000283B2194801780D062AD49D
:101A6000DD0706D04D0604D5CD43AD0612D0491C86
:101A7000017099071FD5037812495D0611D543F00F
:101A8000800303700F4B14331B684380086820F0F9
:101A900002000FE041F0800101704FF6FF714180BC
:101AA000E7E74280402303700648001D0260086893
:101AB00040F002000860226030BD0000100C0040C1
:101AC0000E000020200C004009480168C9070ED014
:101AD00008490A8842F400420A80016821F00101A5
:101AE000016003481038016821F00101016070476E
:101AF000101400400C0000200D4AD36943F020036D
:101B0000D3610C4A1060101F01600A482038016838
:101B100041F00101016007482C38016841F00101E2
:101B200001600223372201210020FFF7CDBC000015
:101B3000001002402C1400401348006880061CD599
:101B40001148001D0068C2B210480188090414D46D
:101B50000188B1F5487F11D20D4B00211960018831
:101B600029B90B4924390B6843F001030B60018844
:101B7000084B0B44491C01801A707047018841F4DE
:101B80000041018070470000004800400C00002028
:101B90002414004028040020FEE700000FB4084B86
:101BA00010B504A902AA039800F0F0F8044602A9AF
:101BB000002000F082FC204610BC5DF814FB000001
:101BC000BB24000837B514460846064B6A46214632
:101BD00000F0DCF804466946002000F06EFC204668
:101BE0003EBD0000BB24000802E008C8121F08C167
:101BF000002AFAD170477047002001E001C1121F8E
:101C0000002AFBD1704700002DE9FF5F82B0002160
:101C1000DDE90430020DDDF840B0034318D044F68E
:101C20001050A2F2FF3242431514119801281FD020
:101C3000A5EB0B00401C5FEA000A4FF000064E4F78
:101C4000DFF83891B046504615D5CAF1000413E0CC
:101C5000119801244AA3012801D16FEA0B010298CF
:101C6000119AC0E90031C0E9024206B0BDE8F09F18
:101C7000CBF10000DFE704460021404A491842EB5F
:101C80000450CDE9001012E0E00707D032463B4691
:101C900040464946FEF7A3FA8046894632463B460F
:101CA00010461946FEF79BFA06460F466410002CB4
:101CB000EAD1DDE90401DDE90023BAF1000F06DA1B
:101CC000FEF78DFA42464B46FEF789FA05E0FEF72D
:101CD00069FC42464B46FEF765FC04460E46002270
:101CE000284BFEF7E7FC03D84FF0FF30014607E032
:101CF0000022254B20463146FEF7ADFBFEF7C1FC26
:101D0000102409E0002C0ADB0A220023FEF715FB51
:101D1000039B30321A55641E50EA0102F2D1641C52
:101D2000039AC4F111031444119A012A03D0012229
:101D300008430DD10AE0084304D000204FF0110BF6
:101D4000119072E7A3EB0B056D1E0DE05B4504DD02
:101D50004FF0000205F1010504E003DA4FF0000244
:101D6000A5F10105002AECD002981199C0E90231D1
:101D7000C0E9004579E70000000014400000F03F92
:101D8000300000000000F0430000E03F2DE9FF4F6D
:101D900095B09B468946064600250FE2252877D157
:101DA00000242746F84A0121059400E0044316F870
:101DB000013F203B01FA03F01042F7D130782A2886
:101DC00011D06FF02F033078A0F13002092A16D815
:101DD000059A44F0020402EB820203EB4202104433
:101DE000761C0590EFE759F8042B0592002A03DAD8
:101DF000504244F40054059044F00204761C3078BC
:101E00002E2816D116F8010F44F004042A280DD00C
:101E10006FF02F023078A0F13003092B09D807EBBF
:101E2000870302EB4303C718761CF3E759F8047BDA
:101E3000761C30786C280FD006DC4C2817D0682828
:101E40000DD06A2814D104E0742810D07A280FD15C
:101E50000DE044F400140AE044F4801401E044F47A
:101E600040147278824202D104F58014761C761CEC
:101E7000307866280BD013DC582877D009DC00288E
:101E800075D04528F6D04628F4D047281AD19DE1D0
:101E900018E0632835D0642879D0652812D195E1FF
:101EA000702873D008DC6728F1D069286FD06E28BD
:101EB0000DD06F2806D1B5E073282CD0752875D0C9
:101EC000782874D05A46179990476D1C75E1C4F371
:101ED0000250022809D003280DD0D9F80010042898
:101EE0000DD00D6009F1040967E1D9F80010EA1777
:101EF000C1E90052F6E7D9F800100D80F2E70D7045
:101F0000F0E719F8041B8DF8001000208DF801008F
:101F1000EA46012003E059F804AB4FF0FF306107B7
:101F20004FF0000102D40DE008F101018846B942EA
:101F30000FDA8045F8DB1AF808100029F4D108E020
:101F400008F1010188468142FADB1AF808100029DD
:101F5000F6D105985B46A0EB080721463846179A4C
:101F600000F094FA284400EB080507E04DE029E171
:101F70000DE01AF8010B5A4617999047B8F101087D
:101F8000F7D25B4621463846179A13E142E00A220F
:101F90000092C4F302524FF0000A022A08D059F806
:101FA00004CB032A4FEAEC710AD00DE029E02AE0C5
:101FB00009F1070121F00702F2E802C1914609E0A8
:101FC0000FFA8CFC4FEAEC71042A03D14FFA8CFC17
:101FD0004FEAEC71002907DA0A460021DCF1000C17
:101FE00061EB02012D2202E0220504D52B228DF89F
:101FF0000420012203E0E20701D02022F7E7904607
:1020000059E00A2102E010220DE010214FF0000AF1
:1020100000910BE010224FF0000A44F0040408275E
:10202000009203E008224FF0000A0092C4F302522B
:10203000022A05D059F804CB0021032A08D009E070
:1020400009F1070121F00702F2E802C1914605E01B
:102050001FFA8CFC042A01D10CF0FF0C4FF0000891
:10206000220728D5702806D0009B83F0100353EA7E
:102070000A0305D00EE040228DF80420012208E07A
:102080005CEA010206D030228DF804208DF80500AC
:1020900002229046009B83F0080353EA0A030AD108
:1020A0005CEA010201D1620705D530228DF80420D7
:1020B0004FF001087F1E582804D034A003900EA8CA
:1020C00002900DE036A0F9E753466046009AFEF70D
:1020D00034F984460398825C0298401E0290027094
:1020E0005CEA0100F0D1029806A9081A00F1200A62
:1020F000600702D524F4803400E00127574502DD53
:10210000A7EB0A0000E0002000EB0A010090059810
:102110004144401A0590E00306D45B462146179AD5
:10212000059800F0B3F90544002706E001A85A46D7
:10213000C05D179990476D1C7F1C4745F6DBE00397
:102140000CD55B462146179A059800F09FF9054487
:1021500004E030205A46179990476D1C0099481E9C
:1021600000900029F5DC08E0029802995A460078B0
:10217000491C0291179990476D1CBAF10001AAF110
:10218000010AF1DC65E10000092801003031323339
:1021900034353637383961626364656600000000A3
:1021A000303132333435363738394142434445468D
:1021B0000000000000F058F90544761C3078002833
:1021C0007FF4ECAD19B02846BDE8F08F620700D46B
:1021D000062709F1070222F0070CFCE80223E1467A
:1021E00003F000485FEA080C02D00FF2702C0DE0FB
:1021F0005FEA045C02D50FF2682C07E05FEAC47C5A
:1022000002D00FF2602C01E0AFF2700C4FF0FF38FB
:1022100023F00043CDF850C065280CD006DC4528DB
:1022200009D046281DD047283DD13DE0662818D06A
:1022300067287ED138E00021112F01DB112000E05A
:10224000781CCDE9000106A90EA8FFF7DDFCDDE949
:102250000F010E9A03910021009207F1010A0491E7
:102260004DE04FF000400097CDE9011006A90EA8FF
:10227000FFF7CAFCDDE90F0203920E9B11990022C1
:10228000DDF80CA00093049211B9791C00EB010A4F
:10229000B7EB0A0004D4C0F1FF3007F1010A049043
:1022A000AAEB0700019044E0012F00DA012700218A
:1022B000112F01DD112000E03846CDE9000106A90B
:1022C0000EA8FFF7A1FCDDE90F010E9A0391002192
:1022D00004910092BA4621070CD40399514500DAC3
:1022E0008A46BAF1010F05DD009AAAF10101515C9D
:1022F000302908D0B84202DA10F1040F06DA0121C1
:10230000CDE9011015E0AAF10101E9E7002805DC9B
:10231000049901440491AAEB000102E0411C5145DB
:1023200000DD8A460499401A401C01904FF000409D
:102330000290200704D40198504501DBCDF80480B9
:1023400000208DF84F0002980DF14F07B0F1004FBB
:1023500025D02B200E9002984FF0020800280CDAAE
:10236000404202902D200E9007E00A210298FDF7CE
:10237000CEFF3031029007F8011DB8F10001A8F13D
:102380000108F2DC02980028EFD1791E0E9808703F
:10239000307800F0200040F0450007F8020D12A848
:1023A000C01B00F107081498007800B1012000EB71
:1023B0000A01019801EBE07105984144401A401E62
:1023C0000590E00306D45B462146179A059800F075
:1023D0005DF805441498007818B15A46179990474B
:1023E0006D1CE00324D55B462146179A059800F042
:1023F0004DF805441CE00498002807DBDDE90301E3
:10240000884203DD0098405C179901E0179930205D
:102410005A469047049805F10105401C0490019824
:10242000401E019004D12E205A46179990476D1CEA
:10243000BAF10001AAF1010ADDDC05E017F8010B91
:102440005A46179990476D1CB8F10001A8F1010890
:10245000F4DC5B462146179A0598ABE62D00000098
:102460002B000000200000002DE9F041044600256B
:102470001E461746880404D405E039462020B0479C
:102480006D1C641EF9D52846BDE8F0812DE9F041A8
:10249000044600251E469046C80301D5302700E0BB
:1024A0002027880404D505E041463846B0476D1C16
:1024B000641EF9D52846BDE8F0810A68531C0B60FC
:1024C00010707047074A0146002013881B0407D587
:1024D0001288054BC2F30E0298541846FDF766BEEB
:1024E000704700000C0000202804002070B506464C
:1024F00032220CA10CA000F049F8002508B135707B
:1025000070BD0CA0FFF7DEFF04460AA1401CFDF7DA
:102510004DFE0570621C3046BDE8704006A1FFF715
:102520003DBB00004F4B000041542B4349465352E2
:1025300000000000220000002573000070B5104C60
:1025400020684006FCD50E4E2B25361D35600F2029
:1025500000F052F820684006FCD535600F2000F0EE
:102560004BF820684006FCD535604FF4FA7000F057
:1025700043F8BDE87040142202A103A000F006B8A1
:10258000004800404F4B0000415400002DE9F0414D
:10259000114D00261446884637462E8001460FA06E
:1025A00000F00EFAB8F1000F13D06CB911E00A2058
:1025B00000F022F82888000406D54046FFF782FF85
:1025C00008B12CB105E02F80641E2404240CEED148
:1025D00001263046BDE8F0810C00002025730D0A6D
:1025E0000000000010B504460420FEF724FF014857
:1025F000046010BD0800002070B5054600244FF4AB
:102600007A7603E0304600F005F8641CAC42F9D35A
:1026100070BD000070B54FF0E024002265690949E3
:10262000A36909684843A1699942FCD002D2A3EB8F
:10263000010302E0A5EB010633441A440B46824233
:10264000F1D370BD0800002030B5134885B0816912
:1026500041F0080181618069104D00F008004FF4DD
:1026600040540490012221462846FEF775FA0022C4
:10267000A1000B48FEF770FA009403200124039098
:10268000694601942846FEF773F90648C0F8B04140
:10269000C0F8B44105B030BD00100240000C01404C
:1026A000001801400080214210B500F0FDF810F044
:1026B000030005D0012803D0022801D0032806D149
:1026C000BDE81040142202A102A0FFF75FBF10BDB9
:1026D0004F4B00000000000010B588B02021684674
:1026E000FDF759FDFFF7B0FF11E000BFFFF726FF30
:1026F000142239A139A0FFF749FF01213BA0FFF7C0
:10270000F1F802213CA0FFF7EDF8FFF71DF81422C5
:1027100031A13CA0FFF73AFF0028E7D114222EA1F7
:1027200039A0FFF733FF0028F8D114222AA138A0DE
:10273000FFF72CFF142228A138A0FFF727FF4FF442
:10274000FA70FFF759FF374C37A16846D4E90123E7
:10275000FFF724FAC82220A16846FFF717FFFEF70B
:10276000FDFE012136A0FFF7BDF8022138A0FFF7DA
:10277000B9F8FEF7E9FFC820FFF73EFF142216A1C3
:1027800037A0FFF703FF20216846FDF704FD37A1BE
:1027900068462268FFF702FA14220FA16846FFF785
:1027A000F5FE0028F8D13648FFF7A0FEFEF7D6FE6A
:1027B000002134A0FFF796F8012136A0FFF792F828
:1027C00002212F48FFF78EF8FEF7BEFF35490020A3
:1027D000088008B010BD00004F4B000041542B434F
:1027E00049504D4F44453D30000000004E4F20659C
:1027F0007370383236360000547279206C696E6B13
:10280000696E6700415400004154453000000000EB
:1028100041542B43574D4F44453D320041542B52B8
:10282000535400001C00002041542B435753415087
:102830003D222573222C222573222C312C340000BA
:102840004C696E6B696E6720737563637365000016
:102850004D6F64756C65206C6976696E6700000069
:1028600041542B4349504D55583D310041542B4361
:1028700049505345525645523D312C2573000000B6
:10288000680A00205769666920646174655F67653E
:102890007400000070617373776420313233343513
:1028A000363738000C00002010B500240DA0FFF7CB
:1028B00009FEA8B14079302806D031280AD0322844
:1028C0000AD033280AD0FF24FDF7CEFF00F014F819
:1028D000204610BD0124F7E70224F5E70324F3E7BF
:1028E000FF2010BD2B4950440000000000F042F8CA
:1028F00000F03EF8FCE7000070B5421C0AD000F082
:102900000302C0F34A14012A07D0022A08D0032A7E
:102910000BD108E04FF0FF3070BD42F2080104E037
:1029200042F2280101E042F2020110F0040202D05A
:10293000042A03D101E0002500E0012500F0180081
:10294000082809D0102802D0182805D102E04FF439
:102950007A7000E0054844430846FDF729FF214608
:102960002846FDF737FF012070BD000040420F00F0
:10297000FDF7D2BF10B5FEF703F9FFF706F8FEF733
:1029800081FD4820FFF72EFE4FF4E131242000F0B6
:1029900037F8FEF751FE08480121C0F89811C0F839
:1029A0009C11FFF799FE4FF448710448FDF7F3FBC3
:1029B000BDE81040FDF7CABE0000224228040020F6
:1029C0000FB40D4870B505AA0499FFF7FBF80A4843
:1029D000FDF7FEFB81B2094A0020074B141D06E0FB
:1029E00015686D06FCD51D5C2560401C80B28842D0
:1029F000F6D370BC5DF814FB480700200048004087
:102A00001F4A10B5936943F0080393611D4B1C687E
:102A100024F47F441C601C6844F40B441C60D3699C
:102A200043F48023D361136943F480231361136952
:102A300023F480231361144A5043B0FBF1F013498F
:102A40000860081D016842F20C0211430160016830
:102A500041F0200101600223272201210020FEF71E
:102A600033FD41F61F4140F2E730FFF745F80848D3
:102A7000016821F00101016006490020088010BDB5
:102A800000100240040C014040420F000848004082
:102A9000001400400C00002003480088000401D509
:102AA00001207047002070470C000020000000004B
:102AB00000000000010203040607080900000000EE
:102AC0000000000000000000000000003F40000087
:102AD0000000000000003000400030004000000016
:102AE00009000BC03D000BC03D00090018C0244088
:102AF0007FE0224031800000180024C01B000D80C0
:102B00003240018003801C4027401C800740004069
:102B10001000600000000000000000000000000045
:102B200000001F80204040200000402020401F80E7
:102B300000000000090006001F80060009000000D8
:102B4000040004003F800400040000000010006046
:102B50000000000000000000040004000400040065
:102B60000400000000000040000000000000000021
:102B7000002001C006003800400000001F802040F7
:102B8000204020401F800000000010403FC0004057
:102B90000000000018C021402240244018400000DE
:102BA00010802040244024401B80000002000D00C3
:102BB00011003FC0014000003C80244024402440DC
:102BC000238000001F802440244034400380000004
:102BD0003000200027C03800200000001B80244067
:102BE000244024401B8000001C0022C022402240C0
:102BF0001F800000000000000840000000000000EE
:102C0000000000000460000000000000000004005C
:102C10000A00110020804040090009000900090055
:102C20000900000000004040208011000A0004005C
:102C30001800200023402400180000001F802040BE
:102C4000274029401F400000004007C039000F0006
:102C500001C0004020403FC0244024401B800000B1
:102C60001F802040204020403080000020403FC096
:102C7000204020401F80000020403FC024402E40C4
:102C800030C0000020403FC024402E003000000033
:102C90000F001080204022403380020020403FC0BF
:102CA000040004003FC02040204020403FC020409E
:102CB000204000000060202020203FC02000200095
:102CC00020403FC024400B0030C0204020403FC087
:102CD00020400040004000C03FC03C0003C03C001A
:102CE0003FC0000020403FC00C4023003FC02000F8
:102CF0001F802040204020401F80000020403FC017
:102D000024402400180000001F802140214020E0C2
:102D10001FA0000020403FC02440260019C00040F2
:102D200018C0244024402240318000003000204060
:102D30003FC020403000000020003F8000400040A5
:102D40003F80200020003E0001C007003800200026
:102D5000380007C03C0007C038000000204039C0E0
:102D6000060039C0204000002000384007C038402D
:102D700020000000304021C02640384020C0000024
:102D8000000000007FE040204020000000007000B4
:102D90000C000380004000000000402040207FE045
:102DA00000000000000020004000200000000000A3
:102DB00000100010001000100010001000000000B3
:102DC00040000000000000000000028005400540B7
:102DD00003C0004020003FC00440044003800000C6
:102DE000000003800440044006400000000003800F
:102DF000044024403FC000400000038005400540DF
:102E000003400000000004401FC024402440200074
:102E1000000002E0055005500650042020403FC04D
:102E20000440040003C000400000044027C00040EC
:102E30000000000000100010041027E00000000057
:102E400020403FC00140070004C004402040204013
:102E50003FC000400040000007C0040007C004005D
:102E600003C00000044007C00440040003C0004049
:102E7000000003800440044003800000041007F0B9
:102E8000045004400380000000000380044004500C
:102E900007F00010044007C00240040004000000D6
:102EA000000006400540054004C00000000004008A
:102EB0001F800440004000000400078000400440E0
:102EC00007C000400400070004C0018006000400A1
:102ED000060001C0070001C006000000044006C053
:102EE000010006C0044000000410071004E0018047
:102EF000060004000000044005C006400440000035
:102F00000000000004007BE0402000000000000002
:102F10000000FFF000000000000040207BE0040003
:102F20000000000040008000400020002000400021
:102F30000000000000000000000000000000000091
:102F40000000000000001FCC000C0000000000008A
:102F50000000080030006000080030006000000041
:102F6000022003FC1E20022003FC1E200220000081
:102F700000000E1811043FFF10840C7800000000C0
:102F80000F0010840F3800C0077818840078000004
:102F900000780F8410C411240E9800E40084000807
:102FA0000800680070000000000000000000000041
:102FB00000000000000007E0181820044002000094
:102FC000000040022004181807E000000000000084
:102FD0000240024001800FF00180024002400000E8
:102FE0000080008000800FF80080008000800000DA
:102FF0000001000D000E00000000000000000000B5
:103000000000008000800080008000800080008040
:103010000000000C000C0000000000000000000098
:103020000000000600180060018006001800200063
:10303000000007F0080810041004080807F000005A
:103040000000080408041FFC000400040000000045
:1030500000000E0C10141024104411840E0C0000FB
:1030600000000C1810041104110412880C700000E8
:10307000000000E00320042408241FFC00240000BA
:1030800000001F98108411041104108810700000B3
:10309000000007F00888110411041888007000006F
:1030A00000001C00100010FC13001C0010000000A9
:1030B00000000E3811441084108411440E380000B2
:1030C00000000700088C10441044088807F0000036
:1030D000000000000000030C030C000000000000D2
:1030E00000000000000101060000000000000000D8
:1030F00000000080014002200410080810040000B5
:1031000002200220022002200220022002200000D1
:103110000000100408080410022001400080000094
:1031200000000E001200100C106C10800F00000048
:1031300003E00C1813E4142417C4082807D0000077
:103140000004003C03C41C40074000E4001C0004D1
:1031500010041FFC1104110411040E8800700000FB
:1031600003E00C1810041004100410081C100000D8
:1031700010041FFC100410041004080807F00000DD
:1031800010041FFC1104110417C4100408180000D7
:1031900010041FFC1104110017C0100008000000EB
:1031A00003E00C181004100410441C7800400000C8
:1031B00010041FFC10840080008010841FFC100489
:1031C0000000100410041FFC100410040000000094
:1031D00000030001100110011FFE1000100000008C
:1031E00010041FFC110403801464181C1004000058
:1031F00010041FFC1004000400040004000C000074
:1032000010041FFC1F0000FC1F001FFC1004000026
:1032100010041FFC0C04030000E010181FFC100039
:1032200007F00808100410041004080807F0000054
:1032300010041FFC10841080108010800F0000000C
:1032400007F0081810241024101C080A07F20000C8
:1032500010041FFC1104110011C011300E0C0004E9
:1032600000000E1C11041084108410441C3800004F
:103270001800100010041FFC1004100018000000BB
:1032800010001FF810040004000410041FF81000C0
:1032900010001E0011E0001C007013801C001000C4
:1032A0001FC0103C00E01F0000E0103C1FC00000E9
:1032B0001004180C163401C001C01634180C100488
:1032C00010001C00130400FC13041C00100000007C
:1032D0000804101C1064108413041C04101800004F
:1032E0000000000000007FFE40024002400200009B
:1032F000000030000C0003800060001C0003000090
:1033000000004002400240027FFE0000000000007A
:1033100000000000200040004000400020000000AD
:103320000001000100010001000100010001000195
:1033300000004000400020000000000000000000ED
:1033400000000098012401440144014400FC0004F1
:1033500010001FFC008801040104008800700000B8
:1033600000000070008801040104010400880000CE
:103370000000007000880104010411081FFC000413
:10338000000000F8014401440144014400C8000069
:103390000000010401040FFC1104110411001800C5
:1033A000000000D601290129012901C901060000F8
:1033B00010041FFC008401000100010400FC000453
:1033C00000000104190419FC0004000400000000BE
:1033D0000000000300010101190119FE00000000B6
:1033E00010041FFC0024004001B4010C0104000083
:1033F0000000100410041FFC000400040000000082
:10340000010401FC0104010001FC0104010000FCB5
:10341000010401FC008401000100010400FC00041F
:10342000000000F8010401040104010400F8000098
:10343000010101FF00850104010400880070000003
:1034400000000070008801040104010501FF000173
:103450000104010401FC008401040100018000005A
:10346000000000CC01240124012401240198000063
:1034700000000100010007F8010401040000000041
:10348000010001F8000400040004010801FC00042C
:10349000010001800170000C00100160018001003A
:1034A00001F0010C003001C00030010C01F00100FE
:1034B00000000104018C00740170018C0104000003
:1034C000010101810171000E0018016001800100FD
:1034D00000000184010C013401440184010C00004E
:1034E000000000000000000001003EFC400240021D
:1034F0000000000000000000FFFF000000000000CE
:103500000000400240023EFC0100000000000000FC
:10351000000060008000800040004000200020008B
:10352000000000000000000000000000000000009B
:10353000000000000000000000000000000000008B
:10354000000000000000000000000000000000007B
:103550000000000F80380FFE380F80380000000098
:10356000000000000000000000000000000001005A
:10357000000600000C0000380000310000060000CA
:103580000C000038000030000000000000000000C7
:1035900061800067F807F980006180006180006148
:1035A000800061800067F807F980006180000000FA
:1035B00000000000000001C0E003E0F00630080455
:1035C00018081FFFFE040E080787F00381E00000C3
:1035D0000000000001F000060C00040408060C7056
:1035E00001F9C0000E00003BE000EC1807080804D9
:1035F0000C180003E00000000001E00007F003F8F1
:1036000018041C0804170807E1D003C0E00023B029
:10361000003C08002008000010000000000000012D
:1036200000003100003200001C000000000000001B
:10363000000000000000000000000000000000008A
:10364000000000000000000000000000000000007A
:103650007F0001FFC00780F00C001810000420005C
:10366000020000000000002000021000040C0018FE
:103670000780F001FFC0007F000000000000000094
:103680000000000000000000000000004200006692
:1036900000006600003C0000180003FFC000180096
:1036A000003C0000660000660000420000000000D0
:1036B000080000080000080000080000080001FFE2
:1036C000C000080000080000080000080000080012
:1036D00000000000000100003100003200001C006A
:1036E00000000000000000000000000000000000DA
:1036F00000000000000000000800000800000800B2
:103700000008000008000008000008000008000091
:103710000800000800000000000000000000000099
:1037200038000038000038000000000000000000F1
:103730000000000000000000000000000000000089
:10374000000600001C000070000180000E00003820
:103750000000C0000700001C000030000000000056
:10376000000000007F8001FFE00380700600180465
:10377000000804000806001803807001FFE0007FC5
:1037800080000000000000000000010008010008A7
:1037900001000803FFF807FFF80000080000080018
:1037A000000800000000000000000001C03802C056
:1037B00058040098040118040218040418061C1880
:1037C00003F81801E0F8000000000000000000010C
:1037D000C0E003C0F0040008040808040808061844
:1037E0000803F41801E7F00001E000000000000009
:1037F000000000000300000D000011000061000047
:10380000810803010807FFF80FFFF8000108000115
:10381000080000000000000000E007FCD0060808D7
:10382000061008061008061008061838060FF006DD
:1038300007C0000000000000000000003F8001FF02
:10384000E00384300208180410080410080410086B
:10385000071810030FF00007C00000000000000070
:10386000000003C0000700000600000600F806077D
:10387000F806180006E0000700000600000000003F
:1038800000000001E1E003F7F0063410041808041A
:103890001808040C08040C0806161803F3F001C1FC
:1038A000E000000000000000F80003FC30030638D0
:1038B0000402080402080402080404100308F001CA
:1038C000FFC0007F000000000000000000000000BA
:1038D00000000000000000007038007038007038F0
:1038E00000000000000000000000000000000000D8
:1038F000000000000000000000000000301A00304E
:103900001C0000000000000000000000000000009B
:103910000000000000000008000014000022000069
:1039200041000080800100400200200400100800D7
:10393000080000000000000021000021000021001C
:1039400000210000210000210000210000210000D2
:10395000210000210000000000000000000008001D
:103960000804001002002001004000808000410097
:103970000022000014000008000000000000000306
:10398000C00004C000040000080038080F38080810
:10399000380810000C300007E00003C000000000F1
:1039A000000000003F8000FFE0038070020F10065F
:1039B000708804C088048308047F8802C0900301D3
:1039C0002000FE400000080000180001F8003E083A
:1039D00001C20007020007E20000FE00001FC8004D
:1039E00001F800003800000804000807FFF807FF8E
:1039F000F804080804080804080804080806180859
:103A000003F41801E7F00001E000000000000000EE
:103A10003F8001FFE00380700200180400080400EA
:103A2000080400080400100600200780C000000001
:103A300004000807FFF807FFF80400080400080462
:103A4000000804001802001003807001FFE0007FEE
:103A50008000000004000807FFF807FFF8040808CA
:103A6000040808040808040808043E0804000806BE
:103A7000001801006000000004000807FFF807FFBD
:103A8000F8040808040800040800040800043E00C4
:103A90000600000600000180000000000000000099
:103AA0003F8001FFE0038070060018040008040254
:103AB000080402080203F00783F00002000002007D
:103AC00004000807FFF807FFF804080800080000D2
:103AD000080000080000080004080807FFF807FFB6
:103AE000F8040008000000000000040008040008BA
:103AF00004000807FFF807FFF804000804000804A2
:103B000000080000000000000000000000060000A7
:103B10000700000104000104000104000307FFFE88
:103B200007FFFC0400000400000400000400080774
:103B3000FFF807FFF8040C08001800003E0004C757
:103B4000800503C80600F8040038040018000008C7
:103B500004000807FFF807FFF80400080000080049
:103B6000000800000800000800000800001800001D
:103B70006000000004000807FFF807800807FC0049
:103B8000007FC00003F80007C00078000780080726
:103B9000FFF807FFF804000804000807FFF8070013
:103BA0000803C00000E000003800001E000007000D
:103BB0000001C00400F007FFF8040000000000004E
:103BC0007F8001FFE00380700600180400080400F5
:103BD0000806001803003001FFE0007F80000000AD
:103BE00004000807FFF807FFF804040804040004B1
:103BF0000400040400040400060C0003F80001F0B3
:103C000000000000000000007F8001FFE0038070E2
:103C10000600880400880400C806003C03003E013A
:103C2000FFE6007F8400000004000807FFF807FF9C
:103C3000F8040808040800040C00040F00040BC07A
:103C40000610F003F03801E0080000080000000151
:103C5000E0F803F030063010041808041808040CCB
:103C600008040C080206180207F00781E0000000B3
:103C700001800006000004000004000004000807A2
:103C8000FFF807FFF8040008040000040000060025
:103C90000001800004000007FFE007FFF0040018A7
:103CA00000000800000800000800000800000804E8
:103CB000001007FFE004000004000006000007E019
:103CC0000007FE00041FE00001F80000380001E0DA
:103CD000043E0007C00006000004000004000007C6
:103CE000E00007FFC0041FF80007C007F80007FF47
:103CF00080043FF80007C004F8000700000400003B
:103D000000000004000806001807C07805F1C8008C
:103D10003E00001F800463E80780F80600180400D6
:103D20000800000004000006000007800007E0080B
:103D3000047C08001FF80007F800180804E00807D2
:103D4000000006000004000000000001000806005A
:103D5000380400F80403E8040F08047C0805F008A0
:103D600007C0080700180400600000000000000001
:103D700000000000000000000000003FFFFE2000E7
:103D800002200002200002200002200002000000A9
:103D900000000000000008000007000000C0000054
:103DA00038000006000001C000003000000E0000D6
:103DB00001000000000000000000200002200002BE
:103DC0002000022000022000023FFFFE0000000051
:103DD00000000000000000000000000000000000E3
:103DE000000800001000003000002000003000003B
:103DF00010000008000000000000000000000100AA
:103E000000010000010000010000010000010000AD
:103E1000010000010000010000010000010000019C
:103E20000000000000000000002000002000001042
:103E30000000100000000000000000000000000072
:103E4000000000000000000000F00019F8001B183E
:103E5000002208002608002408002410003FF80073
:103E60001FF800000800001800000004000007FF11
:103E7000F80FFFF0001818001008002008002008B4
:103E8000003018001FF0000FC0000000000000000C
:103E900007C0001FF0001830002008002008002094
:103EA00008003C08001C100000600000000000003A
:103EB0000000000007C0001FF000381800200800B4
:103EC000200800200804101007FFF80FFFF0000082
:103ED000100000000000000000000007C0001FF0FC
:103EE00000123000221800220800220800320800C8
:103EF0001E10000E20000000000000002000002026
:103F00000800200801FFF803FFF806200804200835
:103F1000042008072000030000000000000000004B
:103F2000000E000E6E001FF30031B10020B1002022
:103F3000B1003191001F13002E1E00200E00300032
:103F400000000004000807FFF80FFFF80010080049
:103F50002000002000002008003FF8001FF80000AB
:103F600008000000000000000000002008002008F9
:103F7000002008063FF8063FF8000008000008008F
:103F80000008000000000000000000000000000029
:103F900003000003002001002001002003063FFE73
:103FA000063FFC00000000000000000000000004CC
:103FB000000807FFF80FFFF8000188000300002F3A
:103FC000C00038F800203800200800000800000079
:103FD00000000000000004000804000804000807B6
:103FE000FFF80FFFF80000080000080000080000BC
:103FF00000000000002008003FF8003FF800100813
:10400000002000003FF8003FF800100800200000EA
:104010003FF8003FF8000008000000002008003FC3
:10402000F8003FF8001008001000002000002008F1
:10403000003FF8001FF8000008000000000000002A
:1040400007C0000FF00018300030080020080020E2
:1040500008003008001830000FF00007C000000012
:10406000000000002001003FFF003FFF0010110092
:104070002009002008002008003038001FF0000F41
:10408000C00000000000000007C0001FF00038184A
:10409000002008002008002009001011001FFF0068
:1040A0003FFF000001000000002008002008002061
:1040B00008003FF8003FF80008080010080020083A
:1040C0000020000030000030000000000000000070
:1040D0000000000C78001E1800330800230800219F
:1040E000080021880021980030F0003860000000AE
:1040F00000000000200000200000200000FFF0036E
:10410000FFF8002008002008002008000030000010
:1041100000000000000000002000003FF0007FF8D9
:10412000000018000008000008002010003FF80000
:104130007FF00000100000000000000020000030B0
:1041400000003C00003F800023F000007800007079
:10415000002380003C000030000020000020000010
:104160003C00003FE00023F80000E0002700003E94
:1041700000003FE00021F80001E0003E00002000C8
:10418000000000002008002008003838003E6800C9
:1041900027800003C8002CF80038380020180020C1
:1041A00008000000000000002000003003003C0177
:1041B000003F830023EC000070002380003C0000DF
:1041C0002000002000000000000000000000003877
:1041D000080020380020F80023E8002F88003E085F
:1041E00000380800201800007000000000000000E7
:1041F00000000000000000000000000008000014A3
:10420000001FF7FC30000620000200000000000044
:10421000000000000000000000000000000000009E
:104220000000FFFFFF000000000000000000000091
:104230000000000000000000000020000230000626
:104240001FF7FC0014000008000000000000000040
:1042500000000000000000000000001800006000E6
:104260000040000040000020000010000008000096
:104270000400000400000C00001000003830383644
:10428000000000003132333435363738000000008A
:10429000446174652D67657400000000BC4200082D
:1042A0000000002028000000E81B0008E44200088D
:1042B00028000020500E0000F81B0008000000003D
:1042C00000A24A04000000000000000000003F3F80
:1042D000663D3F3F3F3F00007C420008904200089F
:0442E000844200080C
:0400000508000131BD
:00000001FF
