:020000040800F2
:10000000B0040020C101000857180008A90C00081E
:10001000551800082108000895220008000000007B
:10002000000000000000000000000000192000088F
:100030002D09000800000000F7180008F120000852
:10004000DB010008DB010008DB010008DB01000820
:10005000DB010008DB010008DB010008DB01000810
:10006000DB010008DB010008DB010008DB01000800
:10007000DB010008DB010008DB010008DB010008F0
:10008000DB010008DB010008DB010008DB010008E0
:10009000DB010008DB010008DB010008DB010008D0
:1000A000DB010008DB010008DB010008DB010008C0
:1000B000DB010008DB01000851210008DB0100081A
:1000C000DB010008DB010008DB010008DB010008A0
:1000D000DB010008DB010008DB010008DB01000890
:1000E000DB010008DB010008DB010008DB01000880
:1000F000DB010008DB010008DB010008DB01000870
:10010000DB010008DB010008DB010008DB0100085F
:10011000DB010008DB010008DB010008DB0100084F
:10012000DB010008DB010008DB010008DB0100083F
:10013000DB010008DB010008DB010008DB0100082F
:10014000DB010008DB010008DB010008DB0100081F
:10015000DB010008DB010008DB010008DB0100080F
:10016000DB010008DB010008DB010008DB010008FF
:10017000DB010008DB010008DB010008DB010008EF
:10018000DB010008DB010008DB010008DB010008DF
:10019000DB010008DB010008DB010008DB010008CF
:1001A000DB010008DB010008DB010008DFF80CD0F0
:1001B00000F07EFA0048004741230008B004002008
:1001C0000648804706480047FEE7FEE7FEE7FEE7F1
:1001D000FEE7FEE7FEE7FEE7FEE7FEE7F5200008A4
:1001E000AD0100080649074A0868504343F2390246
:1001F00010440860400870470149086070470000DB
:10020000880000206D4EC6412DE9FE4F804681EAF0
:100210000300C00F0C46009021F0004123F0004580
:10022000B8EB0200A94105D24046214690461C4643
:100230000B46024623F00040104347D0270DC7F37A
:100240000A00C3F30A510290401A019040286BDA69
:10025000C3F3130040F4801B0098924620B10023A2
:10026000D2EB030A63EB0B0B01985946C0F1400235
:10027000504600F08FF906460D4650465946019A01
:1002800000F0A7F910EB08006141002487EA115241
:1002900084EAE7731A4340D0009A62B3019A012AB4
:1002A0004FEA075215DC001B61EB02014FF00042E0
:1002B00002EA0752CDE90042001C41F580113246A6
:1002C0002B4600F0A7F903B0BDE8F08F4046214669
:1002D000F9E7001B61EB0201001C41F580130018D7
:1002E0005B412018A2F5001747EB030140EAD570E7
:1002F000B6196D4111E06D084FEA360645EAC07542
:100300004FEA0752001B61EB0201001C41F580110E
:1003100049084FEA30000019514132462B4603B0DC
:10032000BDE8F04F00F067B90098012240000023BB
:10033000D0EB020263EBE073009821464FEAE074D1
:10034000B8EB000061EB0401E9E783F000435BE7F1
:1003500081F0004158E72DE9FE4F81EA030404F0E3
:10036000004421F0004100944FF0000B23F00043C3
:1003700050EA01045ED052EA03045BD0C3F30A548E
:10038000C1F30A552C44A4F2F3340194A0FB0254A7
:10039000C1F3130141F48011C3F3130343F4801339
:1003A00001FB024400FB034E840A970A44EA81548D
:1003B00047EA8357A4FB076802958D0A05FB07856A
:1003C0004FEA932C04FB0C542705029D4FEA065874
:1003D00047EA1637B5EB08056EEB070C870E920E51
:1003E00047EA811742EA8312A7FB0201B6EB0B0131
:1003F00064EB00042B0D43EA0C335E1844EB1C50F5
:10040000DA465146E7FB0201C5F313044FEA0B330A
:1004100043EA14534FEA0432019C43EA0603A4F171
:100420000C040294009CCDE900B400F0F3F803B092
:10043000BDE8F08F00200146F9E72DE9F04D81EA93
:10044000030404F0004B21F0004514464FF0000A6D
:1004500023F0004150EA050220D054EA01021DD0E9
:10046000C5F30A570246C5F31303C1F31300C1F3E2
:100470000A5640F4801543F48013A7EB0608101BBE
:10048000D64608F2FD3873EB050002D308F10108E7
:1004900001E092185B41B8F1000F03DA0020014639
:1004A000BDE8F08D00204FF48011064684460EE032
:1004B000171B73EB050705D3121B63EB05030643FC
:1004C0004CEA010C49084FEA300092185B4150EAAF
:1004D0000107EDD152EA030012D082EA040083EA58
:1004E0000501084305D0101BAB4106D201220023B1
:1004F00006E000224FF0004302E06FF001025310CB
:100500001AEB06004CEB085110EB0A0041EB0B0113
:10051000BDE8F04D00F06FB80EB540F233410291E6
:100520000021CDE900110A460B4600F073F803B034
:1005300000BDC1F30A5210B5C1F3130140F2FF33FD
:1005400041F480119A4201DA002010BD40F2334399
:100550009A42A2F2334203DC524200F02AF810BD64
:10056000904010BD30B5041E71F1000404DB4FF063
:100570000044404264EB0101141E73F1000405DBEA
:100580001C464FF00043524263EB04038B4208BF0A
:10059000824230BD202A04DB203A00FA02F100201A
:1005A00070479140C2F1200320FA03F319439040B1
:1005B0007047202A04DB203A21FA02F0002170471C
:1005C00021FA02F3D040C2F12002914008431946BB
:1005D0007047202A06DBCB17203A41FA02F043EAA3
:1005E000E07306E041FA02F3D040C2F120029140EC
:1005F00008431946704710B5141E73F1000408DA59
:10060000401C41F1000192185B411A4301D120F0D6
:10061000010010BD2DE9F04D92469B4611B1B1FA93
:1006200081F202E0B0FA80F220329046FFF7B2FF8A
:1006300004460F4640EA0A0041EA0B0153465A4677
:10064000084313D0114653EA010019D0C8F1400203
:100650005046FFF7AEFF05460E4650465946424605
:10066000FFF798FF084305D0012004E020463946F3
:10067000BDE8F08D0020054346EAE0762C43374381
:100680000A986305E40AA0EB08000022FD0A44EA88
:1006900047540A3002D500200146E9E70105101948
:1006A0006941DDE9084500196941BDE8F04DA2E75F
:1006B000064C074D06E0E06840F0010394E80700AF
:1006C00098471034AC42F6D3FFF774FDAC3C0008F9
:1006D000CC3C00081CB51E48016841F480710160E3
:1006E0001B481438016841F00101016003208DF8B6
:1006F000040002208DF8070001200090694615488B
:1007000000F0F0F9144800214160816041684160C7
:1007100041684160816821F002018160816821F4B3
:100720000061816081688160C16A21F47001C162E9
:10073000C16AC162016921F007010161016941F0EB
:1007400007010161816841F0010181601CBD000069
:100750004438024000000240002001401CB51E4801
:10076000016841F4007101601B481438016841F0D0
:100770000101016003208DF8040002208DF80700BC
:10078000802000906946154800F0ACF9144800211B
:10079000016041600168016001680160416821F009
:1007A00002014160416821F400614160416841609B
:1007B000816A21F470018162816A8162C16821F4D9
:1007C0006001C160C16841F46001C160416841F0ED
:1007D000010141601CBD000044380240000002409D
:1007E0000421014010B504460B49086840F48070AC
:1007F0000860086820F48070086008494FF4803071
:100800000860E00701D0FFF765FFA00703D5BDE84A
:100810001040FFF7A3BF10BD24380240042301405D
:10082000FEE708B53C2000904FF0FF33032205217E
:100830000F2001F031FD08BD10B50121CC05204687
:1008400001F068F82046BDE81040002101F062B8D0
:1008500001460020024A52680A4200D00120704737
:1008600000B0024030B500242A4B19682A4A1140D2
:1008700019601968026811431960596B21F007016A
:100880005963596B4268114359634168002928D064
:1008900001292DD0022930D0032933D0C1680A01A3
:1008A00001690902446924038568214315430D4306
:1008B000996B0D439D638169D963196C6FF30D01C9
:1008C0001964196CC26911431964818C09045A6C4A
:1008D00002F040425A645A6C006A02430A435A6466
:1008E00030BDC1680A02018A0904047D2406DBE7E1
:1008F000C1680A02018A0904D6E7C1684A01016990
:10090000C902D1E7C1684A01016989024469E40367
:10091000CAE7000000B00240FCE0FCFF02480168AA
:1009200041F001010160704700B0024070470000D3
:100930000A484FF47A710068B0FBF1F0401EB0F144
:10094000807F09D24FF0E0214861054AF020107005
:100950000020886107200861704700001400002013
:1009600023ED00E00249086008680028FCD17047C8
:100970000000002000224FF0204310280AD0B0F5DC
:10098000807F09D0B0F5805F09D0D3F8580181434A
:1009900009D107E0586EFAE7D3F88400F7E7D3F8F7
:1009A000A400F4E70122104670470000D0E90012CD
:1009B00011438268C068521E520142EA402001433E
:1009C0000148016070470000500100A070B5046844
:1009D000A100A1F1C041D1F84011CE0BF603D0E93E
:1009E00001121143D0E903231A4311434269C36939
:1009F00011438269056A11431943426A294311432D
:100A000031434FF02046002C3CD0D6F840416FF3E4
:100A10000E042B4322431343C6F840310268920070
:100A2000A2F1C042C2F84011016871B38900A1F17E
:100A3000C041D1F8481101F07043816A0A684C68DE
:100A4000521E641E42EA04148A68521E44EA0224BA
:100A50000A8A521E44EA02421A43D6F8483103F089
:100A60007043CC68898A641E2403491E44EA0151FC
:100A70001943C6F8481100688000A0F1C040C0F8D2
:100A8000482170BDC6F84011CEE7FFE7D6F84811FF
:100A900001F07041806A02684368521E5B1E42EAA0
:100AA00003138268521E43EA0223C268521E43EABD
:100AB0000233028A521E43EA0243828A007E521E99
:100AC00043EA0252401E42EA00600843C6F8480169
:100AD00070BD000002490A6842EA400008607047A1
:100AE000540100A02DE9F041002201274FF0030C32
:100AF00007FA02F50B682B40AB422CD10668530075
:100B00000CFA03F4A64306600E79D0F800809E40EC
:100B100046EA080606600E79012E01D0022E12D197
:100B20008668A64386604E79D0F808809E4046EAE3
:100B3000080686604668AE43466045688E799640F2
:100B4000B6B235434560C568A543C560CC799C40C5
:100B5000C3681C43C460521C102AC9D3BDE8F0818D
:100B600010B54B07DB0E9A40C90800EB8100016A03
:100B70000F249C40A1430162016A1143016210BD30
:100B8000418370470183704710B5FFF72BFB152198
:100B900090FBF1F201FB120015283FD2DFE800F0D4
:100BA0003E0B0E101215171A1D202225282A2D3053
:100BB000323436383B004FF0FF3010BD194810BDBD
:100BC000194810BD4FF0FF2010BD184810BD6FF43C
:100BD0007F0010BD6FF47F4010BD6FF0FF0010BDAF
:100BE000134810BD1048FF3010BD6FF07F1010BDCE
:100BF000104810BD6FF4FE0010BD6FF07F0010BDF7
:100C00000D4810BD0D4810BD0D4810BD0D4810BD5C
:100C10000B48803010BD0B48803010BD07487F3036
:100C200010BD0000404040FF008080FF0000FFFF3B
:100C30002C2C2CFF8080FFFFA3A3A3FF800000FFCC
:100C4000008000FF000080FF164A0346012818D0EC
:100C5000022B15D102F58472D06A20F01F00D062F9
:100C6000D06A0843D062106840F080401060A2F55E
:100C70008472D2F800018007FBD5D2F84C0180B213
:100C80007047506B20F01F005063506B0843506357
:100C9000906840F08040906010688007FCD5D06C70
:100CA00080B2704700200140FEE7000010B5064802
:100CB00000F01CF851EC100BFFF73BFC80B2FFF783
:100CC0002BFC41EC100B10BD4800002010B506486D
:100CD00000F00CF851EC100BFFF72BFC80B2FFF783
:100CE0001BFC41EC100B10BD6800002010B5044641
:100CF0002DED088BB0EE409AF0EE609A94ED000B6B
:100D00009FED331B51EC100B53EC112BFFF72AFC1A
:100D100008D184ED009BB0EE490AF0EE690ABDEC03
:100D2000088B10BD94ED000B51EC190B53EC102BFC
:100D3000FFF70BFB41EC100B01F066FB84ED020B9F
:100D400094ED041B53EC102B51EC110BFFF75CFAE4
:100D500041EC180B94ED060B51EC180B53EC102BD7
:100D6000FFF752FA41EC100B51EC180B53EC102B1F
:100D7000FFF763FB41EC1A0B94ED00BB51EC190B30
:100D800053EC1B2BFFF7E1FA53EC1A2BFFF7E3FAB6
:100D900053EC1B2BFFF738FA41EC100B84ED000BE2
:100DA000B0EE409AF0EE609A9FED0B0B53EC1A2BCD
:100DB00051EC100BFFF7C9FA53EC182BFFF7CBFAE5
:100DC000C4E90401B0EE490AF0EE690AA7E70000A1
:100DD0000000000000000000000000000000F03FE4
:100DE0002DE9F0478AB00025A946DFF8B8A09AF8A7
:100DF0000E0000283FD02C4C9AF80C00D0B32B48A2
:100E000004602848022D406800F01F063BD0032DE7
:100E10003ED0C6B2C0F30728C0F307474FEA1069B7
:100E2000FFF70AFD4FF44030009001950497CDF88C
:100E30000C800296CDF814900694002007904FF491
:100E4000F07008904FF4487009906846FFF70AFD6B
:100E5000FFF764FD0220FFF7FBFC0028FAD0022018
:100E600000F0F2FC9AF80E00C0438AF80E000AB0B7
:100E7000BDE8F08702E0DAF80840BDE702250B483C
:100E800080380460BDE7C0F3C427C0F34518C7E746
:100E9000010401D54FF0FF09C0F38427C0F34418C3
:100EA000BEE700008C000020002823D02C69014000
:100EB00001494873704700008C0000202DE9F84F6D
:100EC0000746884654420025022000EB4406DFF81E
:100ED0007CA0381B08EB0509DAF8002000901FFA07
:100EE00089F180B200F094F81FFA89F107EB040948
:100EF0001FFA89F0DAF8002000F08AF8A8EB050B59
:100F00001FFA8BF11FFA89F0DAF8002000F080F860
:100F100000981FFA8BF1DAF8002080B200F078F820
:100F20003246AA4208DC6D1C06EB4506761CEC42F4
:100F300002D1A24200DC0022A24203DD641C06EBC7
:100F40004406761C002CC4DDBDE8F88F8C00002020
:100F50002DE9FC4F84460C460027A2EB0C0000282C
:100F600001DCACEB020000B2191B002900DCE11A25
:100F700009B20FFA8CF526B24FF0FF3B624503D35E
:100F80004FF00109CA4601E0D946DA46A34204D32C
:100F90004FF0010B0122019201E0CDF804B088422C
:100FA0000ADB4FF000090022019200EBD0725210D0
:100FB00014B20091804625E04FF0000AD34601EBC1
:100FC000D172521014B2009088461BE00F48B1B2A3
:100FD0000268A8B200F01CF80098204404B244450E
:100FE00008DBA4EB080004B205EB090005B206EB30
:100FF0000B0006B205EB0A0005B20198304406B2B8
:101000007F1C3FB24745E1DDBDE8FC8F8C0000202E
:10101000F0B50026204CA37B002B03D0A368247BD3
:1010200014B102E01D4BFAE70226A0F2DF156FF0C3
:101030001807194C7D4301EB451501EBC107647B93
:1010400007EB011100EB411146B190B2012E0ED019
:10105000F4B1012C01D123F81500F0BD24B1012C0D
:10106000FBD143F82520F0BD43F82120F0BDC2F3A9
:1010700007423CB1012CF9D105EB45015852C81883
:101080008270F0BD01EB41015852C8188270F0BD6A
:1010900023F81100F0BD00008C000020002823D0B0
:1010A0002DE9F04F0746894692460320A0EB4A06F9
:1010B0000024554639E0ADB1A9EB0508381B08EB13
:1010C000450B82B21FFA8BF31FFA88F180B2FFF74B
:1010D0003FFF381982B21FFA8BF31FFA88F180B2F2
:1010E000FFF736FFACB1A9EB0408781B08EB440B03
:1010F00082B21FFA8BF31FFA88F180B2FFF728FF44
:10110000781982B21FFA8BF31FFA88F180B2FFF7C9
:101110001FFF002E03DA06EB8406B61D04E0601BF9
:1011200006EB80060A366D1E641CAC42C3D95246DB
:1011300049463846BDE8F04FFFF7C0BE2DE9FC5FD9
:10114000012140F20F7000F0D7FB4FF400460096EB
:1011500003208DF8050002258DF8045000208DF83D
:10116000060001248DF807400E220F219F48FFF74B
:10117000F7FC0E2200219E48FFF7F2FC0E2201210F
:101180009B48FFF7EDFC0E2202219948FFF7E8FC8F
:101190000E2203219648FFF7E3FC0E220421944817
:1011A000FFF7DEFC0E2205219148FFF7D9FC0E2245
:1011B00006218F48FFF7D4FC009669468B48FFF75D
:1011C00091FC009469468A48FFF78CFC00956946BB
:1011D0008748FFF787FC0427009769468448FFF794
:1011E00081FC4FF00808CDF8008069468048FFF781
:1011F00079FC4FF01009CDF8009069467C48FFF764
:1012000071FC4FF0200ACDF800A069467848FFF73E
:1012100069FC4020009069467548FFF763FC0E2288
:1012200007217348FFF79CFC0E2208217048FFF746
:1012300097FC0E2209216E48FFF792FC0E220A212C
:101240006B48FFF78DFC0E220B216948FFF788FCE5
:101250000E2200216748FFF783FC0E22012165481A
:10126000FFF77EFC0E2202216248FFF779FC802006
:10127000009069465E48FFF735FC20020090694601
:101280005B48FFF72FFC6002009069465848FFF763
:1012900029FCA002009069465548FFF723FCE002B4
:1012A000009069465248FFF71DFC0094694651487A
:1012B000FFF718FC009569464E48FFF713FC0097AE
:1012C00069464C48FFF70EFC0E220C214848FFF7F8
:1012D00047FC0E220D214648FFF742FC0E22114624
:1012E0004348FFF73DFC0E220F214148FFF738FC31
:1012F0000E2203213F48FFF733FC0E2204213D4814
:10130000FFF72EFC0E2205213A48FFF729FC0E229A
:1013100006213848FFF724FC4FF4805BCDF800B07D
:1013200069463348FFF7DEFB6503009569463048A0
:10133000FFF7D8FBA703009769462D48FFF7D2FBBC
:10134000009669462A48FFF7CDFBCDF80080694634
:101350002848FFF7C7FBCDF8009069462548FFF7FE
:10136000C1FBCDF800A069462248FFF7BBFB402037
:10137000009069461F48FFF7B5FB0E2211461B4837
:10138000FFF7EEFB0E220C211848FFF7E9FB0E22B7
:101390000D211648FFF7E4FB0E2207211548FFF741
:1013A000DFFB009769461148FFF79CFBCDF800B0C2
:1013B00069460E48FFF796FB009569460B48FFF714
:1013C00091FB8020009069460A48FFF78BFB8DF85F
:1013D00004400095084C69462046FFF783FB2946E8
:1013E0002046FFF7CFFBBDE8FC9F00000020024035
:1013F0000024024000280240000C024030B58FB0AB
:1014000003240121880600F0A1FA0121C80500F09B
:1014100073FAFFF793FE00F06BFD9620224607213A
:1014200000F0CEFA002000F0BBFA012000F0C2FA72
:101430003D2000F099FA0028FAD000200090019099
:10144000029003900C900D900E9001200490059056
:101450002E2006901720079040F24E30089040F260
:10146000F710099040F216400A9040F20D200B90C0
:10147000684600F03DF900F029F8012000F018F965
:101480000020FFF715FD104800F0C6F8012000F01D
:10149000DDF8002000F0C6F84FF07F44204600F051
:1014A00067F82516284600F08DF8FFF799FC012013
:1014B00000F0B8F8204600F05BF8284600F082F80B
:1014C000FFF78EFC0FB030BD0800002030B591B0A2
:1014D0002F20019040F24E3002901820039040F2ED
:1014E000F710049002200590FF2006900024079436
:1014F000089409940A944FF480600B9005200C9096
:101500004FF4F07010904FF050400D9040F2436057
:101510000E90C01E0F90144D01A9284600F048F906
:101520000121284600F038F905944FF4C0600B9073
:1015300007200C900D480D9040F683400E90C01E81
:101540000F90094C01A98034204600F031F90121A7
:10155000204600F021F9012000F076F9012000F08A
:10156000B7F811B030BD00008468014000B80BD05E
:1015700030B500210023124D2A7B002A00D1022120
:1015800000F47804C0F3C402022903D0032909D06F
:10159000686030BD210A00F47C40400901431143DA
:1015A000696030BD010E01D04FF40043610A00F4C0
:1015B000784080090B43034313436B6030BD000048
:1015C0008C00002030B500210023124D2A7B002A18
:1015D00000D1022100F47804C0F3C402022903D030
:1015E000032909D0286030BD210A00F47C4040095D
:1015F00001431143296030BD010E01D04FF4004377
:10160000610A00F4784080090B43034313432B60C5
:1016100030BD00008C0000200149086070470000C8
:10162000040000200749002802D0012804D005E06A
:101630004FF050428A6001E0034A8A60087300203C
:10164000887370478C00002000B80BD00149C87324
:10165000704700008C0000207CB50121402000F084
:101660004BF90121082000F047F901208DF8040012
:101670008DF8070000208DF80500802000900A4DAD
:1016800069462846FFF72EFAAC140094074E6946C7
:101690003046FFF727FA80212846FFF771FA2146E6
:1016A0003046FFF76DFA7CBD00180240000C024086
:1016B0000649002804D0086840F00100086070471F
:1016C000086820F0010008607047000018680140B9
:1016D0000649002804D0086840F48030086070474C
:1016E000086820F4803008607047000018680140E6
:1016F00030B5264A136826490B401360038A1B0441
:10170000146845692C431C431460121D13680B4078
:101710001360038B1B041468C5692C431C431460BD
:10172000121D13680B401360038C1B041468456A78
:101730002C431C431460121D13680B401360018D71
:1017400009041368C46A23430B431360111D0A681C
:10175000104B1A400A60D0E900231A43D0E9023442
:1017600023431A430B681A430A60416B0A02018E35
:101770000B04064924310C6804F07F440C600C68AB
:10178000806B134304431C430C6030BD0868014068
:1017900000F800F08F88FE0F002904D0016841F0A6
:1017A000010101607047016821F00101016070478B
:1017B00070B58A881204436803F4704343600B6871
:1017C000134343608A891204836803F4704383607F
:1017D0008B6813438360026922F0070202610A6981
:1017E0000261CA6913020A8C120491F8244024068B
:1017F0008569002585618E6922431E4316438661F3
:10180000426922F0FF0242614A694261C26940F2C4
:1018100007739A43C261D1E90A231A43C261826AFB
:1018200085620A6B82620A8F1204C36A03F0E023A6
:10183000C3624B6B1343C362026B6FF30A02026312
:10184000C96B016370BD000001490860704700006A
:1018500024680140FEE7704730B50F23C2780125A8
:101860000178002A1FD0154A126802F4E062C2F51E
:10187000E062C2F30722C2F10404D3404278A240DE
:1018800084781C401443220101F1E02181F80024F6
:10189000007800F01F018D404009800000F1E02039
:1018A000C0F8005130BD01F01F008540480980009C
:1018B00000F1E020C0F8805130BD00000CED00E0E8
:1018C0000249084302490860704700000000FA0519
:1018D0000CED00E008B51E208DF8000002208DF808
:1018E000010003208DF8020001208DF803006846F6
:1018F000FFF7B2FF08BD7047054A002903D0116801
:101900000143116070471168814311607047000006
:1019100030380240054A002903D0116801431160A4
:101920007047116881431160704700001038024011
:10193000054A002903D011680143116070471168FE
:10194000814311607047000038380240054A002981
:1019500003D0116801431160704711688143116021
:101960007047000044380240024600205109012916
:101970000BD002290DD00949096802F01F0201238A
:1019800093400B4200D00120704704497439096824
:10199000F3E70249091F0968EFE7000074380240C5
:1019A000034A116821F4403101431160704700007F
:1019B0008C38024001490867704700000000474228
:1019C000800140EA0160024940EA02700860704705
:1019D000883802402DE9FC5F01214FF4FE70FFF7CB
:1019E0008BFF02248DF8044003208DF805000020B1
:1019F0008DF806008DF807000C220021FE48FFF745
:101A0000AFF80C220121FC48FFF7AAF80C220221B2
:101A1000F948FFF7A5F80C220321F748FFF7A0F8D3
:101A20000C220421F448FFF79BF80C220521F24810
:101A3000FFF796F80C221146EF48FFF791F80C22B9
:101A40000D21ED48FFF78CF80C220E21EA48FFF734
:101A500087F80C220F21E848FFF782F80C220021BA
:101A6000E648FFF77DF80C220121E448FFF778F8FB
:101A7000012500956946E048FFF734F8009469466F
:101A8000DD48FFF72FF8042000906946DA48FFF799
:101A900029F8082000906946D748FFF723F810205E
:101AA00000906946D448FFF71DF820200090694651
:101AB000D148FFF717F8E00200906946CE48FFF7DB
:101AC00011F8200300906946CB48FFF70BF8670335
:101AD00000976946C848FFF705F8A60300966946CF
:101AE000C548FEF7FFFF00956946C448FEF7FAFFB8
:101AF00000946946C148FEF7F5FF0C220E21C0484C
:101B0000FFF72EF80C220F21BD48FFF729F80C2211
:101B10000021BB48FFF724F80C220121B848FFF749
:101B20001FF80C220721B748FFF71AF80C220821EA
:101B3000B448FFF715F80C220921B248FFF710F856
:101B40000C220A21AF48FFF70BF80C220B21AD48FD
:101B5000FFF706F80C221146AA48FFF701F80C22FD
:101B60000D21A848FEF7FCFF0C220E21A548FEF728
:101B7000F7FF0C220F21A348FEF7F2FF0C220821E9
:101B80009F48FEF7EDFF0C2209219D48FEF7E8FF74
:101B90000C220A219A48FEF7E3FF0C2208219A48FA
:101BA000FEF7DEFF0C2209219748FEF7D9FF0C2231
:101BB0000A219548FEF7D4FF0C220B219248FEF72C
:101BC000CFFF0C2211469048FEF7CAFF0C220D21D0
:101BD0008D48FEF7C5FF0C220E218B48FEF7C0FF93
:101BE0000C220F218848FEF7BBFF0C2200218748FA
:101BF000FEF7B6FF0C2201218448FEF7B1FF0C224C
:101C000002218248FEF7ACFF0C2203217F48FEF739
:101C1000A7FF0C2206217D48FEF7A2FF0C22072118
:101C20007A48FEF79DFF0C2209217848FEF798FFBD
:101C30000C220A217548FEF793FF00976946704809
:101C4000FEF750FF009669466D48FEF74BFF009582
:101C500069466B48FEF746FF009469466848FEF700
:101C600041FF8020009069466648FEF73BFF4FF435
:101C70008078CDF8008069466248FEF733FF4FF464
:101C80000079CDF8009069465E48FEF72BFF4FF4CF
:101C9000806ACDF800A069465A48FEF723FF4FF44A
:101CA000006BCDF800B069465648FEF71BFFE00216
:101CB000009069465348FEF715FF200300906946DF
:101CC0005048FEF70FFF009769464E48FEF70AFF9F
:101CD000009669464B48FEF705FFCDF8008069463F
:101CE0004748FEF7FFFECDF8009069464448FEF7EE
:101CF000F9FECDF800A069464148FEF7F3FECDF8A5
:101D0000008069464048FEF7EDFECDF80090694638
:101D10003D48FEF7E7FECDF800A069463A48FEF7D9
:101D2000E1FECDF800B069463748FEF7DBFEE00281
:101D3000009069463448FEF7D5FE200300906946BE
:101D40003148FEF7CFFE009769462F48FEF7CAFEDE
:101D5000009669462C48FEF7C5FE009569462B485B
:101D6000FEF7C0FE009469462848FEF7BBFE04203B
:101D7000009069462548FEF7B5FE082000906946A8
:101D80002248FEF7AFFE4020009069461F48FEF74C
:101D9000A9FE8020009069461C48FEF7A3FECDF8FE
:101DA000009069461948FEF79DFECDF800A06946EF
:101DB0001648FEF797FE0C2206211348FEF7D0FEC8
:101DC0000C2204210D48FEF7CBFE0C2205210B4806
:101DD000FEF7C6FE0C2200210D48FEF7C1FE0C22C4
:101DE0000B210548FEF7BCFE0C220F210348FEF72D
:101DF000B7FE0C2208210DE000140240001802403A
:101E0000000C024000100240001C02400020024072
:101E1000000802403048FEF7A3FE0C2207212F489D
:101E2000FEF79EFE0C2201212D48FEF799FE0C22A2
:101E300000212B48FEF794FE0C2204212948FEF7CE
:101E40008FFE0C2205212748FEF78AFE40200090D5
:101E500069462248FEF746FE1020009069461E485B
:101E6000FEF740FE2020009069461B48FEF73AFE30
:101E7000009569461C48FEF735FECDF800B069466E
:101E80001A48FEF72FFE009669461348FEF72AFE11
:101E9000CDF8008069461048FEF724FE80200090AF
:101EA00069460E48FEF71EFE009469460C48FEF790
:101EB00019FE009569460A48FEF714FE10200090AE
:101EC00069460848FEF70EFE202000906946054846
:101ED000FEF708FEBDE8FC9F00180240001C02400F
:101EE000001002400020024000080240001402409E
:101EF00000B593B001210846FFF71AFDFFF76AFD10
:101F0000022001900721029104220392049105907E
:101F10000690079001200890002009900A92202145
:101F20000B9140210C914FF4C0710D910E90500215
:101F30000F90400010904000119001A8129008A846
:101F4000FEF744FD00F002F813B000BD7FB5012597
:101F50000095082401940295002603962021012073
:101F6000FEF708FD0028F9D16846FEF71FFD0A209C
:101F700000F042F80220009001940295039602E0DE
:101F80006846FEF713FD20210120FEF7F3FC002830
:101F9000F6D10320009001940294039620210120A1
:101FA000FEF7E8FC0028F9D16846FEF7FFFC202187
:101FB0000120FEF7DFFC0028F9D16846FEF7F6FCA9
:101FC00040F23120042100910194029503902021D8
:101FD0000120FEF7CFFC0028F9D16846FEF7E6FCA9
:101FE00040F26A50FEF776FD20210120FEF7C2FC88
:101FF0000028F9D17FBD000001B581B005490198E5
:102000004843009002E00098401E0090009800288D
:10201000F9D10CBDA0860100704700001CB500215D
:10202000019100912E4A106840F4803010604FF406
:10203000A043106800F4003000900198401C01900B
:10204000009810B901989842F3D11068800302D526
:102050000120009000E00091009801283FD1204825
:102060004030016841F0805101601E49086840F429
:10207000404008601A48083003680360036843F46E
:1020800000430360036843F4A0530360041F164B2E
:102090002360136843F08073136013689B01FCD5C1
:1020A0000A6842F480320A604A68D203FCD50A68A2
:1020B00042F400320A604A689203FCD50B4A40F2AF
:1020C00005711160016821F003010160016841F0B0
:1020D000020101600168C1F381010229FAD11CBD2E
:1020E0000038024000700040195A4007003C02408E
:1020F00000F0C6B810B51248016841F470010160E3
:102100001048016841F0010101600E4A00210832C7
:10211000116002680C4B1A400260031D0B4A1A60E2
:10212000026822F48022026006480C300160FFF74A
:1021300075FF03494FF000608039086010BD000052
:1021400088ED00E000380240FFFFF6FE103000246A
:1021500070B5394D2888C0076CD0FEF715FD374C97
:10216000014605232268B2FBF3F003FB102000F0C8
:10217000EDF820680721B0FBF1F201FB1202052AFD
:1021800005D0B0FBF1F201FB120006281DD1FEF7CD
:10219000FBFC0146002000F0D9F8FEF7F5FC0146F3
:1021A000012000F0D3F8FEF7EFFC0146022000F01A
:1021B000CDF8FEF7E9FC0146032000F0C7F8FEF772
:1021C000E3FC0146042000F0C1F8FEF7DDFC064602
:1021D00000210120FEF738FDFEF79EF941EC100BBF
:1021E000FEF764FD51EC100BFEF7A3F980B200F08E
:1021F0003BF9314600F0AAF8FEF7C6FC0646072177
:102200000220FEF721FDFEF787F941EC100BFEF7E7
:102210005DFD51EC100BFEF78CF980B200F016F961
:10222000314600F093F82068401C2060288820F098
:102230000100288070BD0000100800402800002028
:102240000D48016841F0040101600C4849F63F4126
:102250000160001F40F28331018008482038018866
:1022600041F00101018005482C38018841F001014D
:102270000180FFF72FBB0000403802402C080040CF
:1022800003480168002902D00168491E01607047B7
:1022900000000020FEE7000070B5049D064C207091
:1022A0006170A2706360257200F082F8207ABDE848
:1022B000704000F013B800009C00002002E008C845
:1022C000121F08C1002AFAD170477047002001E0B0
:1022D00001C1121F002AFBD1704700002DE9F04117
:1022E0000646164D6889B04206D2A889B04203D28C
:1022F0004FF0FF30BDE8F0816868FFF763F9002414
:10230000012715E06B78A989B4FBF3F007EB4000D7
:10231000484381B2B4FBF3F003FB10406A8907EB3A
:102320004000504380B23246FEF7BAFE641CA4B2AD
:102330002878A042E6D80120DCE700009C000020BD
:1023400000F04BF800F046F8FCE70000014A127A72
:1023500000F002B89C00002070B504461646601CD0
:102360004FF0FF3205D0114D287AB04203D210460B
:1023700070BD104670BD0846FFF724F96878012249
:1023800094FBF0F1AB8902EB4101594394FBF0F36C
:1023900000FB134002EB40006A8989B2504380B2CF
:1023A0003246FEF77DFE012070BD00009C0000203B
:1023B00007484FF4487241784900B2FBF1F141817E
:1023C00081784FF4F0724900B2FBF1F181817047DE
:1023D0009C0000203220FEF7C5BA10B54FF4A06073
:1023E000FFF76EFAFFF738F9FEF7A2FAFFF706F8E3
:1023F000FEF717FAFFF724FF00F044F8BDE810409D
:102400000320FEF7EFB9000010B52DED028BB0EE02
:10241000408AF0EE608A9FED0B0B51EC180B53ECE9
:10242000102BFEF79FF808D251EC180B81F00041F9
:1024300041EC100BBDEC028B10BDB0EE480AF0EE83
:10244000680AF7E7000000000000000000B5054939
:1024500000F02EF8411C02D00A3040B200BD4FF00F
:10246000FF3000BD3800002000B5054900F020F81D
:10247000411C02D0401D40B200BD4FF0FF3000BDF6
:102480002C0000201CB501218020FFF735FA002028
:102490008DF804008DF8070003208DF8050020203A
:1024A000009069460148FEF71DFB1CBD001C024060
:1024B0008A8882420BD20A89824201D204200FE02C
:1024C000C988814201D203200AE0022008E04A883C
:1024D000824201D2012003E00988814202D2002019
:1024E00040B270474FF0FF3070470000000000001E
:1024F00000000000000000000000000000000000DC
:1025000000000000000000000000000000000000CB
:1025100000000000000000000000000000000000BB
:1025200000000000000000000000000000000000AB
:10253000000000000000C003C003C003C003C003CC
:10254000C00380038001800180018001800180013F
:10255000800180010000000000008001C003C00372
:102560008001000000000000000000000000C01812
:10257000E01CE01C700E300618038C018400000083
:10258000000000000000000000000000000000004B
:10259000000000000000000000000000000000003B
:1025A000000000000000000000000000000000002B
:1025B000000000000000201020102010201020102B
:1025C000FE7FFE7FFE7F100810081008100810081C
:1025D0001008FE7FFE7FFE7F180C08040804080424
:1025E00008040000000000000000000000000000DF
:1025F000000080008000C003B00C90189818981C50
:10260000981CB800B000F000E000C0038007800F05
:10261000800C801C80189C189C188C188C0C9806B8
:10262000E003800080008000000000000000000047
:102630000000000000001C08360822046304630246
:1026400063026302630163012201B61C9C364022CF
:1026500040634063206320631063106310220836D8
:10266000081C000000000000000000000000000046
:10267000000000000000F00098008C018C018C012B
:102680008C018C00CC005C0038001C3E3C083208F9
:1026900073086304E304C3048303834306678C3E27
:1026A000781C0000000000000000000000001C007A
:1026B0003C003C003000300010000C000600000020
:1026C000000000000000000000000000000000000A
:1026D00000000000000000000000000000000000FA
:1026E00000000000000000000000000000000040AA
:1026F000002000100018000C000400060002000377
:10270000000380018001800180018001800180013F
:102710008001800100030003000200060004000C99
:10272000001800100020004000000000000002001F
:102730000400080018003000200060004000C000C5
:10274000C000800180018001800180018001800142
:1027500080018001C000C000C00060002000300087
:102760001800080004000200000000000000000043
:102770000000000000000000000000038003800350
:102780000C631C713839600D80038003600D38398B
:102790001C718C6180038003800300000000000036
:1027A0000000000000000000000000000000000029
:1027B0000000000000000000000000000001000117
:1027C00000010001000100010001FC7F0001000187
:1027D00000010001000100010001000000000000F4
:1027E00000000000000000000000000000000000E9
:1027F00000000000000000000000000000000000D9
:1028000000000000000000000000000000000000C8
:10281000000000000000000000001C003C003C0024
:102820003000300010000C00060000000000000026
:102830000000000000000000000000000000000098
:1028400000000000000000000000FE7F000000000B
:102850000000000000000000000000000000000078
:102860000000000000000000000000000000000068
:102870000000000000000000000000000000000058
:102880000000000000000000000000000000000048
:102890000000000000000000000018003C003C00A8
:1028A0001800000000000000000000000000000010
:1028B0000040006000200030001000180008000CEC
:1028C0000004000600020003000180018000C00037
:1028D00040006000200030001000180008000C00CC
:1028E00004000600020000000000000000000000DC
:1028F000000000000000C0036004300C1818181815
:1029000018100C300C300C300C300C300C300C30FB
:102910000C300C300C30181018181818300C6004DB
:10292000C0030000000000000000000000000000E4
:1029300000000000000000018001F801800180011A
:10294000800180018001800180018001800180017F
:102950008001800180018001800180018001C0032D
:10296000F81F000000000000000000000000000050
:10297000000000000000E007101C081804300430BC
:102980000C300C30003000180018000C000600035A
:102990008001C00040002020102008200430FC1FCF
:1029A000FC1F00000000000000000000000000000C
:1029B000000000000000E00318060C0C0C180C18B6
:1029C0000C1800180018000C0006C003000E0018B8
:1029D0000010003000300C300C300C100C18180CAB
:1029E000E003000000000000000000000000000004
:1029F0000000000000000006000600070007800637
:102A000080064006200620061006100608060C0662
:102A100004060206FE3F0006000600060006000649
:102A2000C03F0000000000000000000000000000A7
:102A3000000000000000F03FF03F08000800080020
:102A4000080008000800C807280C181808100030F3
:102A50000030003000300C300C3004180418180C12
:102A6000E003000000000000000000000000000083
:102A700000000000000080076018301810181800CF
:102A8000080008000C00CC076C0C1C181C100C3043
:102A90000C300C300C300C30183018103018700C12
:102AA000C00700000000000000000000000000005F
:102AB000000000000000F83FF83F08100C08040870
:102AC0000404000400020002000200010001800072
:102AD000800080008000C000C000C000C000C000B6
:102AE000C000000000000000000000000000000026
:102AF000000000000000E007300C18180C300C300B
:102B00000C301C301C107818F004E003180F0C1E59
:102B10000C1C063806300630063006300C18180C2F
:102B2000E0030000000000000000000000000000C2
:102B3000000000000000E00318040C080C18061048
:102B4000063006300630063006300E380C341836A3
:102B5000F03100300018001800080C0C0C060C03B3
:102B6000F001000000000000000000000000000074
:102B70000000000000000000000000000000000055
:102B8000000000008001C003C003800100000000BD
:102B9000000000000000000000008001C003C0032E
:102BA00080010000000000000000000000000000A4
:102BB0000000000000000000000000000000000015
:102BC000000000000000C001C001C00100000000C2
:102BD000000000000000000000000000C001C00173
:102BE000C0018001C000C000000000000000000023
:102BF0000000000000000020001000080004000297
:102C000000018000400020001000080008001000B3
:102C100020004000800000010002000400080010B5
:102C20000020000000000000000000000000000084
:102C30000000000000000000000000000000000094
:102C400000000000FE7F0000000000000000000007
:102C5000FE7F0000000000000000000000000000F7
:102C60000000000000000000000000000000000064
:102C700000000000000004000800100020004000D8
:102C8000800000010002000400080010001000088D
:102C90000004000200018000400020001000080035
:102CA0000400000000000000000000000000000020
:102CB000000000000000C0073018183008600C60E9
:102CC0001C601C601C6000300018000E0003000136
:102CD000000100010001000000008001C003C003EA
:102CE0008001000000000000000000000000000063
:102CF000000000000000C0076008301018200C2BF6
:102D00008C4D844CC64CC644664466446644664654
:102D1000662666266417CC0C0C4008201830301844
:102D2000C0070000000000000000000000000000DC
:102D3000000000000000C001C001C001C00120036C
:102D40002003200320033002100610061006100492
:102D5000F80F080C080C080C04180418041806389E
:102D60001F7C0000000000000000000000000000C8
:102D7000000000000000FE07181C1818183018305A
:102D80001830183018301818180CF80718181830A0
:102D9000182018601860186018601860183018182B
:102DA000FE0F000000000000000000000000000016
:102DB000000000000000C0076038103018600C40B0
:102DC0000C400C0006000600060006000600060087
:102DD0000600060006000C400C40082018103008C1
:102DE000C00700000000000000000000000000001C
:102DF000000000000000FE03180E1818181018300C
:102E00001830186018601860186018601860186032
:102E1000186018601820183018301818181818067C
:102E2000FE030000000000000000000000000000A1
:102E3000000000000000FE3F183018201840184025
:102E40001800180018081808180CF80F180C1808A3
:102E500018081800180018001840184018201830DA
:102E6000FE3F000000000000000000000000000025
:102E7000000000000000FE3F1838182018401840DD
:102E80001800180018081808180CF80F180C180863
:102E90001808180818001800180018001800180062
:102EA0007E000000000000000000000000000000A4
:102EB000000000000000C003300C100818180C10AF
:102EC0000C10040006000600060006000600067E40
:102ED0000618061804180C180C18081818183004CE
:102EE000E0030000000000000000000000000000FF
:102EF0000000000000003FFC0C300C300C300C30A7
:102F00000C300C300C300C300C30FC3F0C300C30E2
:102F10000C300C300C300C300C300C300C300C30D1
:102F20003FFC000000000000000000000000000066
:102F3000000000000000F81F800180018001800176
:102F40008001800180018001800180018001800179
:102F50008001800180018001800180018001800169
:102F6000F81F00000000000000000000000000004A
:102F7000000000000000E07F0006000600060006DA
:102F80000006000600060006000600060006000611
:102F90000006000600060006000600060006000601
:102FA00000060E060E038E01FC000000000000006B
:102FB0000000000000007E3E180C180418061802DD
:102FC0001801180198009800D800B801B80118033A
:102FD000180318061806180C180C180C18181818CE
:102FE0007E7C0000000000000000000000000000E7
:102FF0000000000000007E001800180018001800F3
:103000001800180018001800180018001800180000
:103010001800180018001800184018401820183020
:10302000FE3F000000000000000000000000000063
:103030000000000000000FF01C381C381C381C3841
:103040001C34343434343434343234326432643200
:10305000643264314431C431C431C430C43084304A
:103060008FFC0000000000000000000000000000D5
:103070000000000000000FF81C201C203420342029
:1030800064206420C420C4208421842104230423D8
:1030900004260426042C042C04380438043004309C
:1030A0001F200000000000000000000000000000E1
:1030B000000000000000C003300C181808100C308D
:1030C0000C3006200660066006600660066006603A
:1030D0000660066004600C300C3008101818300CC4
:1030E000C00300000000000000000000000000001D
:1030F000000000000000FE0F18181830186018605B
:10310000186018601860186018301818F807180050
:1031100018001800180018001800180018001800EF
:103120007E00000000000000000000000000000021
:10313000000000000000C003300C181808100C300C
:103140000C30066006600660066006600660066079
:10315000066006600660E4211C331C36181E300E23
:10316000C007004C003C00380000000000000000D8
:10317000000000000000FE07181C18181830183056
:103180001830183018301818180CF80718031803DE
:10319000180618061806180C180C180C1818181809
:1031A0007E78000000000000000000000000000029
:1031B000000000000000F013181E0C18061806107E
:1031C000061006000E003C00F800E003800F001E11
:1031D0000018003802300230063004300C181C0C85
:1031E000E4070000000000000000000000000000F4
:1031F000000000000000FC3F8C218461824182417C
:1032000080018001800180018001800180018001B6
:1032100080018001800180018001800180018001A6
:10322000E0070000000000000000000000000000B7
:103230000000000000003F7C0C100C100C100C1063
:103240000C100C100C100C100C100C100C100C109E
:103250000C100C100C100C100C100C10180838046A
:10326000E00300000000000000000000000000007B
:103270000000000000003E781830181018101810D8
:1032800030083008300830083004600460046004FE
:103290006002C002C002C002C00180018001800043
:1032A000800000000000000000000000000000009E
:1032B000000000000000CFF38661862184210421F4
:1032C0000C238C238C238C138C13881348125816D0
:1032D0005816580E380E300E300E300C30041004D4
:1032E00010040000000000000000000000000000CA
:1032F0000000000000003E7C181018083008300460
:1033000060046002C002C00180018001800180036E
:10331000400340062006200E100C100C1818083828
:103320003E7C0000000000000000000000000000E3
:103330000000000000007E7C1C10181018083008E7
:103340003008300460046004C002C002C001800183
:103350008001800180018001800180018001800165
:10336000E007000000000000000000000000000076
:10337000000000000000F87F383018300C180418E6
:10338000000C000600060003000380018001C0005D
:10339000C000600060003000184018600C200C383D
:1033A000FE3F0000000000000000000000000000E0
:1033B000C03FC000C000C000C000C000C000C000CE
:1033C000C000C000C000C000C000C000C000C000FD
:1033D000C000C000C000C000C000C000C000C000ED
:1033E000C000C000C03F000000000000000000005E
:1033F00000000000180018001000300020006000DD
:1034000060004000C00080008001800100010003D6
:10341000000200060006000C000C000C001800184A
:1034200000300030003000600000000000000000AC
:10343000FC03000300030003000300030003000378
:103440000003000300030003000300030003000364
:103450000003000300030003000300030003000354
:1034600000030003FC030000000000000000C00394
:10347000C007600410080000000000000000000009
:10348000000000000000000000000000000000003C
:10349000000000000000000000000000000000002C
:1034A000000000000000000000000000000000001C
:1034B000000000000000000000000000000000000C
:1034C00000000000000000000000000000000000FC
:1034D00000000000000000000000000000000000EC
:1034E0000000000000000000FFFF00000000780066
:1034F000C00000010000000000000000000000000B
:1035000000000000000000000000000000000000BB
:1035100000000000000000000000000000000000AB
:10352000000000000000000000000000000000009B
:10353000000000000000000000000000000000008B
:1035400000000000E007180C0C180C180C18001CE8
:10355000E01B38180C1806180618061806980C9E5A
:10356000F8710000000000000000000000000000F2
:103570000000000010001E001800180018001800BD
:10358000180018009807581C3818383018301830B0
:103590001830183018301830183018103818380C07
:1035A000C80700000000000000000000000000004C
:1035B000000000000000000000000000000000000B
:1035C00000000000C0077008301818180C180C0014
:1035D0000C000C000C000C000C20182018103008F7
:1035E000C007000000000000000000000000000014
:1035F000000000000010001E00180018001800183D
:1036000000180018E01B301C181818180C180C189B
:103610000C180C180C180C180C180818181C307AF8
:10362000E0090000000000000000000000000000B1
:10363000000000000000000000000000000000008A
:1036400000000000C003300C101818100C300C30B3
:103650000C30FC3F0C000C000C00182018107018E7
:10366000C007000000000000000000000000000093
:10367000000000000000003E80618060C060C0006B
:10368000C000C000FC1FC000C000C000C000C000DF
:10369000C000C000C000C000C000C000C000C0002A
:1036A000F80F000000000000000000000000000013
:1036B000000000000000000000000000000000000A
:1036C00000000000C077306C10181818181818186F
:1036D0001018300CF00718001800F803F01F183805
:1036E0000C300C300C301818E0070000000000000F
:1036F0000000000010001E0018001800180018003C
:10370000180018009807580C3818181818181818A6
:103710001818181818181818181818181818181829
:103720007E7E00000000000000000000000000009D
:103730000000000000008001C003800100000000C4
:1037400000000001F80180018001800180018001FA
:103750008001800180018001800180018001800161
:10376000F81F000000000000000000000000000042
:10377000000000000000001C001E000C0000000003
:1037800000000008C00F000C000C000C000C000C26
:10379000000C000C000C000C000C000C000C000CC9
:1037A000000C000C18061802F001000000000000D8
:1037B0000000000010001E0018001800180018007B
:1037C00018001800183E180C180418021801980167
:1037D000D801780338031806180C180C1818183874
:1037E0007E7C0000000000000000000000000000DF
:1037F000000000000001F8018001800180018001CB
:1038000080018001800180018001800180018001B0
:1038100080018001800180018001800180018001A0
:10382000F81F000000000000000000000000000081
:103830000000000000000000000000000000000088
:1038400000000400F73C8E638661866186618661B4
:103850008661866186618661866186618661866130
:10386000CFF3000000000000000000000000000096
:103870000000000000000000000000000000000048
:103880000000000090075E0C381818181818181857
:1038900018181818181818181818181818181818A8
:1038A0007E7E00000000000000000000000000001C
:1038B0000000000000000000000000000000000008
:1038C00000000000C003300C1018181808300C302D
:1038D0000C300C300C300C300C3018181818300C20
:1038E000C003000000000000000000000000000015
:1038F00000000000000000000000000000000000C8
:103900000000000090075E0C3818181018301830AE
:103910001830183018301830183018183818780C3B
:1039200098071800180018007E0000000000000032
:103930000000000000000000000000000000000087
:1039400000000000C013301E181C18180C180C18AA
:103950000C180C180C180C180C180818181C301E11
:10396000E019001800180018007E00000000000098
:103970000000000000000000000000000000000047
:103980000000000060387E666061E001E0006000D9
:103990006000600060006000600060006000600027
:1039A000FE07000000000000000000000000000012
:1039B0000000000000000000000000000000000007
:1039C00000000000C0276038303030203020700008
:1039D000E003800F001E0038083008301830381817
:1039E000C80F000000000000000000000000000000
:1039F0000000000000000000000080008000800047
:103A0000C000E000FC1FC000C000C000C000C0003B
:103A1000C000C000C000C000C000C020C020801195
:103A2000000F000000000000000000000000000087
:103A30000000000000000000000000000000000086
:103A4000000010101E1E181818181818181818182A
:103A5000181818181818181818181818181C307A68
:103A6000E00900000000000000000000000000006D
:103A70000000000000000000000000000000000046
:103A8000000000003E7C183018101818300830086C
:103A9000200460046004C002C002C00380018001F1
:103AA0008000000000000000000000000000000096
:103AB0000000000000000000000000000000000006
:103AC00000000000DFF3866184218C218C218C139F
:103AD000881358135812580E700E300E300C3004E4
:103AE00020040000000000000000000000000000B2
:103AF00000000000000000000000000000000000C6
:103B0000000000007C3E300870086004C002C00263
:103B100080018001800340062006200C1018181830
:103B20003E7E0000000000000000000000000000D9
:103B30000000000000000000000000000000000085
:103B4000000000003E7C18181808100830082004F7
:103B5000600460044002C002800280018001800095
:103B60008000800040007C003C000000000000005D
:103B70000000000000000000000000000000000045
:103B800000000000FC1F0C1C0C0C040604070003C2
:103B90008001C001C00060007020302018300C1877
:103BA000FC1F0000000000000000000000000030CA
:103BB00000080004000400040004000400040004E1
:103BC000000400040004000400038001000200045B
:103BD00000040004000400040004000400040004C5
:103BE0000004000400080030000000010001000192
:103BF00000010001000100010001000100010001BD
:103C000000010001000100010001000100010001AC
:103C1000000100010001000100010001000100019C
:103C20000001000100010001000100000000180077
:103C300020004000400040004000400040004000A4
:103C40004000400040004000800100038000400030
:103C50004000400040004000400040004000400064
:103C60004000400020001800000000007800C40060
:103C7000824102410027001C0000000000000000FB
:103C80000000000000000000000000000000000034
:103C90000000000000000000000000000000000024
:103CA000000000000000000000000000CC3C000804
:103CB000000000208C000000BC220008583D0008D5
:103CC0008C00002024040000CC220008000000002A
:103CD00000000000EA24000810002000400000005E
:103CE0000095BA0A00000000000000000102030471
:103CF000060708090000000016035C038403C003E4
:103D0000E8030000E20414057805DC052206000043
:103D100000000000000000000000000000000000A3
:103D2000000000000000000000002440000000002F
:103D3000000034400000000000000000000000000F
:103D4000000000000000000000002440000000000F
:083D50000000344000000000F7
:04000005080001AD41
:00000001FF
